:0100000301FB
:06E0000002E00602F71C1D
:10E05F0002E06212E06F80FE8582FF2285FF82223E
:10E06F0002EC202275A800C28E740F55894420F54A
:10E07F0089438780758DFFD28E75985275820022E5
:10E08F0010980280FB8599822210990280FB759966
:10E09F000A10990280FB75990D22AA82AB83C3EAFD
:10E0AF009400EB94E040012275B1007902E51E1255
:10E0BF001FF075B10122AA82AB83C3EA9400EB94DF
:10E0CF00E0500B75B1007908121FF075B101C3EA6A
:10E0DF009480EB94005036751E0290000012E0A958
:10E0EF00751EE090000112E0A9751E00900002124B
:10E0FF00E0A9751E0290001B12E0A9751EE09000AA
:10E10F001C12E0A9751E0390001D02E0A9229002C7
:10E11F0096E4F0900299F090FA9C75F08012E38DDE
:10E12F007A007B00C3EA9400EB94E0502C8A0474CD
:10E13F00075BFDBC000BBD000810990280FB7599B1
:10E14F002E8A828B83C002C00312E0C5D003D00297
:10E15F0074802AFAE43BFB80CB90FAA475F080120E
:10E16F00E38DC200C20112E08FAA82BA1B0302E242
:10E17F00B8BA3AF212E544AB82C00312E544AC825E
:10E18F00D0037D00EC2BFE8C057C00C003C004C0C7
:10E19F0005C00612E544AA82D006D005D004D003EC
:10E1AF00EA2EFE8A077800EF2CFCE83DFDC003C085
:10E1BF0004C005C00612E544AF82D006D005D004D6
:10E1CF00D003EF2EFE7800EB2CF508E83DF509E4BF
:10E1DF00BF000104FFC3EC9508ED9509400302E26F
:10E1EF0088C004C005C006C00712E544AA82D00744
:10E1FF00D006D005D004EA2EFEEF6075C374029CE2
:10E20F00E49D5046C3EC941BED94004007741D9C95
:10E21F00E49D50368A1E8C828D83C002C004C005D7
:10E22F00C006C00712E0A9D007D006D005D004D091
:10E23F00028C018D03788089828B8388F012F851CC
:10E24F00F9B50202802BD2018027C3EC9403ED9421
:10E25F0000500EEC2496F582ED3402F583EAF0803F
:10E26F00108C03EB24E52499F582E43402F583EA5C
:10E27F00F00CBC00010D02E1E4C006C00712E5443A
:10E28F00AA82D007D006EA2EFEEF601DBE000280E4
:10E29F000DD20010990280FB75995802E175109903
:10E2AF000280FB75992E02E17530000B90FAB9755B
:10E2BF00F08012E38D801730010B90FACB75F08050
:10E2CF0012E38D800990FADA75F08012E38D3098A1
:10E2DF000312E08F900296E0FABA021B900298E0C8
:10E2EF00F51E90DFFE12E0A9900297E0F51E90DF79
:10E2FF00FF12E0A912E36B900299E0FABA02012231
:10E30F0090FAE275F08002E38DAA8290DF00C002DE
:10E31F0012E0C5D0027B00BB080050218B047D00AA
:10E32F0074DF2DFDEB90E06793F51E8C828D83C01B
:10E33F0002C00312E0A9D003D0020B80DA8A1E902C
:10E34F00DF02C00212E0A9D0028A1E90DF0512E0A0
:10E35F00A902DF047582002202DF002290DFFEE4B3
:10E36F0093FA740193FB900291EAF0A3EBF02290E1
:0EE37F00FAFF75F08002E38DD2BB43B7802217
:0300000002E0001B
:03001B0002E003FD
:02DFFE00000021
:10F86D008050308153508244504C834450488557CA
:10F87D004454448653504452865350444154875007
:10F88D00434F4E8854434F4E89544D4F448A544CE8
:10F89D00308B544C318C5448308D5448318E4155F9
:10F8AD0058529050319853434F4E9953425546A05C
:10F8BD005032A24155585231A84945A953414444AB
:10F8CD0052AA53505352AA5350434647B05033B1E6
:10F8DD00464346B6465354B749503048B84950B9D7
:10F8ED00534144454EC057445443C85432434F4E80
:10F8FD00C954324D4F44CA52434150324CCB5243FE
:10F90D0041503248CC544C32CD544832D0505357DC
:10F91D00D553504352D5535043544CD843434F4E77
:10F92D00D9434D4F44DA434341504D30DB434341BE
:10F93D00504D31DC434341504D32DD434341504D39
:10F94D0033DE434341504D34E0414343E041E84908
:10F95D00454E31E9434CEA43434150304CEB434370
:10F96D004150314CEC43434150324CED43434150F7
:10F97D00334CEE43434150344CF042F7495031483B
:10F98D00F8495031F94348FA434341503048FB435D
:10F99D004341503148FC434341503248FD434341BC
:10F9AD00503348FE434341503448FF0000884954CA
:10F9BD0030894945308A4954318B4945318C5452EF
:10F9CD00308D5446308E5452318F544631985249B1
:10F9DD009954499A5242389B5442389C52454E9DF7
:10F9ED00534D329E534D319F534D30A8455830A93C
:10F9FD00455430AA455831AB455431AC4553AF450C
:10FA0D0041B8505830B9505430BA505831BB505499
:10FA1D0031BC5053BD505432D050D14631D24F56D7
:10FA2D00D3525330D4525331D54630D64143D743B8
:10FA3D0059C843505F524C32C9435F5432CA545275
:10FA4D0032CB4558454E32CC54434C4BCD52434CA2
:10FA5D004BCE45584632CF544632AD455432DF4336
:10FA6D0046DE4352DC43434634DB43434633DA43FD
:10FA7D00434632D943434631D843434630AE4543DE
:10FA8D00EB45424FBE505043FB50424FFF000045E7
:10FA9D00726173696E67000A53656E642066696CE6
:10FAAD0065206F72203C4573633E0A000A4368650A
:10FABD00636B73756D206572726F72210A000A4651
:10FACD006C617368206572726F72210A000A446F4F
:10FADD006E652E0A005741524E494E473A206D69C8
:10FAED007373696E672054696D657231206A6D702C
:10FAFD000A00506F72743A205038395635315244DD
:08FB0D00322056312E310A00AE
:10E38D00AA82AB83ACF08A828B838CF012F851FD9C
:10E39D0024FF5028BD8000502310990280FB8A82F3
:10E3AD008B838CF012F851FD8D99BD0A08109902DE
:10E3BD0080FB75990D0ABA00CD0B80CA2210990207
:10E3CD0080FB75990D7A00BA4F00500B10990280A1
:10E3DD00FB7599200A80F010990280FB75990D222A
:10E3ED007A00C00212E08FAB82D002BB080280120D
:10E3FD00BB0A028028BB0D028023BB16028050028F
:10E40D00E49AEA60DD90FB9975F080C00212E38D0D
:10E41D00D0028A041AEC2421F8760080C5C00212BD
:10E42D00E098D002EA2421F87600EA60219002C03B
:10E43D00EAF07C00C3EA9C4015EC24A0F582E4349C
:10E44D0002F583EC2421F88605EDF00C80E622120E
:10E45D00E3CA9002C0E0FA90FB9D75F080C00212F5
:10E46D00E38DD0027C00C3EA9C500302E3EFEC2461
:10E47D0021F8EC24A0F582E43402F583E0FDF610DA
:10E48D00990280FBEC2421F886990C80D9BA1F00E3
:10E49D0050138A040AEC2421F8A60310990280FB7C
:10E4AD008B9902E3EF10990280FB75990702E3EF58
:10E4BD00AA82C00212F83DE582D002600674DF5ACE
:10E4CD00FB80028A03EB24D0FA24F65004EA24F9E7
:10E4DD00FA8A8222AA8210990280FBEAC4540FFBA9
:10E4ED0090FB8093F59910990280FB740F5A90FB65
:10E4FD008093F59922AA82AB838B047D008C82C018
:10E50D0002C00312E4E1D003D0027B008A8202E450
:10E51D00E1AA82AB83ACF0AD57AE58ED4E60178AD1
:10E52D00828B838CF0E55912F824A3AA82AB831D4C
:10E53D00BDFFE81E80E52212E08F12E4BDE582FAF0
:10E54D00C454F0FAC00212E08FD002C00212E4BD32
:10E55D00AB82D002EB2AF582227A007B007C00BCD4
:10E56D000200400302E5EDC002C003C00412E08FBB
:10E57D00AD82D004D003D00210990280FBE4BD20FF
:10E58D000104FE60047F7880028D078F998D82C013
:10E59D0002C003C004C005C00612F7D6E582D0063E
:10E5AD00D005D004D003D0027019C202EE600FD294
:10E5BD0003BB000C10990280FB7599788002C20391
:10E5CD008A8222EAC454F0FE8D82C004C00612E491
:10E5DD00BDAD82D006D004ED2EFA0C8C0302E56C95
:10E5ED00D203D2028A8222AA82AB83ACF07D00BD17
:10E5FD000062C002C003C004C00512E098D005D06F
:10E60D0004D003D00210990280FBAE428E9910996E
:10E61D000280FB75993ABE44028003BE49178A8277
:10E62D00C002C003C004C00512E4E1D005D004D07F
:10E63D0003D00280178A828B83C002C003C004C03E
:10E64D000512E502D005D004D003D0021099028046
:10E65D00FB75993A10990280FB7599208A828B83FC
:10E66D008CF012F851FEF582C002C003C004C00543
:10E67D0012E4E1D005D004D003D00210990280FB42
:10E68D0075992EC002C003C004C00512E566AE82A6
:10E69D00D005D004D003D00220020330034830024D
:10E6AD000A8A828B838CF0EE12F82410990280FB7B
:10E6BD0075990810990280FB7599088A828B838C55
:10E6CD00F012F851FEA3AA82AB838E82C002C00362
:10E6DD00C004C00512E4E1D005D004D003D0020D72
:10E6ED0053050702E5FC02E09890FBA075F080123F
:10E6FD00E38D3098FD12E3CAC298859982228582F6
:10E70D004685834785F048754900E5437004E54427
:10E71D0060028006754380E4F5447531007E007F0C
:10E72D0000C3EE9543EF9544400122EE2546FDEFE3
:10E73D003547FAAB488D828A838BF012F851FA7403
:10E74D000F5EFB7C00BB0002800302E7C71099023D
:10E75D0080FBAC458C9910990280FB75993ABC44AD
:10E76D00028003BC491CAC46EEFD2CF582C002C0F4
:10E77D0003C006C00712E4E1D007D006D003D002D3
:10E78D00801FAC46AD47EE2CF582EF3DF583C00200
:10E79D00C003C006C00712E502D007D006D003D0D3
:10E7AD000290FBC675F080C002C003C006C0071200
:10E7BD00E38DD007D006D003D0028A82C002C003F9
:10E7CD00C006C00712E4E1D007D006D003D0021076
:10E7DD00990280FBBB07047C2D80027C208C99EA7A
:10E7ED0024DF500DBA7F005008EB2421F8A60280DB
:10E7FD0006EB2421F8762EBB0F5890FBCA75F080DE
:10E80D00C006C00712E38DD007D00690002175F029
:10E81D0040C006C00712E38DD007D006C006C00762
:10E82D0012E098D007D0060549E549B41724C3EE88
:10E83D009543EF9544501BC006C00712E6F6AA8219
:10E84D00D007D006BA1B0122BA20041549800375E2
:10E85D0049000EBE00010F02E72EC204C2057A0068
:10E86D00BA20005063EA2421F88682C002C000124B
:10E87D00F83DE582D000D002600BEA2421F9870330
:10E88D005303DF8006EA2421F98703A603EA242136
:10E89D00F88682C00212F7FEE582D0026006EA24F5
:10E8AD0021F87600EA2421F88603BB3D067600D2D6
:10E8BD000480128603BB2E028003BB5F08EA24216D
:10E8CD00F87600D2050A80987A007B00BB200050B4
:10E8DD0024EA2421F8EB2421F98704A604BC000DB9
:10E8ED0074012B2421F88604BC00028005E521600B
:10E8FD00010A0B80D7BA20005009EA2421F87600CE
:10E90D000A80F2227A007B00E5412421F88604BCBE
:10E91D00000280418C82C002C00312F7D6E582D07E
:10E92D0003D002602C8A04EBC454F0CCC4CC6CCC64
:10E93D0054F0CC6CFDE5412421F88682C004C0055D
:10E94D0012E4BDAE82D005D0047F00EE2CFAEF3D6F
:10E95D00FB054180B305418A828B8322AA82AB835A
:10E96D00ACF012E38D10990280FB75993D854A82BA
:10E97D0012E4E110990280FB75992010990280FB39
:10E98D007599202212E098900288E0F54A90FBCE0E
:10E99D0075F08012E96990028AE0F54A90FBD17515
:10E9AD00F08012E969900290E0F54A90FBD475F081
:10E9BD008012E96990028BE0F54A90FBD775F080E3
:10E9CD0012E96990028EE0FAA3E0FB8A4A90FBDA25
:10E9DD0075F08012E96990028CE0FAA3E0FB8A4A97
:10E9ED0090FBDE75F08012E969900289E0F54A909E
:10E9FD00FBE275F08012E96990FBE675F08012E399
:10EA0D008D900291E0FAA3E0FB8A828B8312E502DE
:10EA1D0012E098900289E0FAC423541FFA530203BE
:10EA2D00752152752300EAC40354F8FB7C00BC0821
:10EA3D0000502B74302CF522EB2C2400F582E4349D
:10EA4D0002F583E0F54A90002175F040C002C00345
:10EA5D00C00412E969D004D003D0020C80D090FB21
:10EA6D00EA75F080C00212E38DD00210990280FB8E
:10EA7D0074302AF59902E098AA82AB8312E502025E
:10EA8D00E098AA82AB83ACF08A828B838CF012F86B
:10EA9D0051FD700302EB21ED248050708D580ABAA0
:10EAAD0000010B8A058B068C077557008D828E83AE
:10EABD008FF012F851FA24804032C005C006C0070D
:10EACD007B00E5572421F88607EF3395E0FDEAB585
:10EADD000708EBB5050474018001E4D007D006D01A
:10EAED000560090DBD00010E055780C08D028E0316
:10EAFD008F048D828E838FF012F851FD2480500C7F
:10EB0D00E5572421F88605BD000280080ABA0001E8
:10EB1D000B02EA958A828B838CF012F85160048582
:10EB2D005882227582FF22900293E4F0C206900271
:10EB3D009FE0FA700302EBDF90029FE0FABA01301A
:10EB4D007A00BA04005029EA75F002A42480F582F7
:10EB5D00740235F0F583E0FBA3E0FC900291E0FD3B
:10EB6D00A3E0FEEBB50506ECB50602D2060A80D28F
:10EB7D0090029DE0FAA3E0FB900291E0FCA3E0FD82
:10EB8D00EAB50406EBB50502804890029FE0FABA9B
:10EB9D0002004015750B01E4F50C900294E0FAA308
:10EBAD00E0FB8A828B8312F26F209826A206B3E4D3
:10EBBD0033FA601E90029FE0FABA030312E99190B6
:10EBCD000291E0FAA3E0FB900294EAF0A3EBF012BD
:10EBDD00F77A90029FE0FABA0200401DA298B3E4C2
:10EBED0033FA6015750B01E4F50C900294E0FAA36D
:10EBFD00E0FB8A828B8312F26FC29812E991750B3A
:10EC0D0001E4F50C900291E0FAA3E0FB8A828B837C
:10EC1D0002F26F900293E0FABA0102801A90FBF0B3
:10EC2D0075F08012E38D12E37E9002907407F0125E
:10EC3D00E36B755400800312EB3490FB9D75F080EF
:10EC4D0012E38D755720E4F5587559009000217524
:10EC5D00F04012E51E12E3ED12E86790029DE4F01C
:10EC6D00A3F090029FE4F075410012E91112E91131
:10EC7D0085824F85835012E911AC82AD83C004C0EB
:10EC8D000512E911858251858352D005D00474F0A7
:10EC9D00554FF54B85504C740F2CFEE43DFF74F031
:10ECAD005EF54D8F4EAE4F90FB1575F080C004C0D4
:10ECBD0005C00612EA8FE582D006D005D004547F38
:10ECCD00F554E554FF24DC500302F00FEF240983C3
:10ECDD00C0E0EF242783C0E0223145649DB7D40BFB
:10ECED00263B546FAEAEE9EFF5308652525252527A
:10ECFD005252527FA789898989C8F4092EEDEDED0D
:10ED0D00EDEDEDEEEEEEEEEEEEEEEEEEEEEFEEEF17
:10ED1D00EFEFEFEFEFEFEFEEEEEFEFEFEFEFEFF0F7
:10ED2D00ED02EC47E4F543F544754544900200755A
:10ED3D00F00012E70B02EC47747F554FFF7A002469
:10ED4D0000FFEA3402FA7B007542448F828A838B7E
:10ED5D00F012E5F402EC47747F554FFA7B00240066
:10ED6D00FAEB3402FB7F00C374809CE49D50087560
:10ED7D005580E4F55680048C558D56855159855531
:10ED8D00578556588A828B838FF012E51E02EC4709
:10ED9D007A807B007F40E4F543F5447545498A82CE
:10EDAD008B838FF012E70B02EC47747F554FFA7B84
:10EDBD00004302807B007F407542498A828B838F9E
:10EDCD00F012E5F402EC47747F554FFA7B004302D5
:10EDDD00807B007F40C374809CE49D5008755580F6
:10EDED00E4F55680048C558D5685515985555785BA
:10EDFD0056588A828B838FF012E51E02EC47AA4B80
:10EE0D00AB4C7F00854D43854E447545588A828BAA
:10EE1D00838FF012E70B02EC47AA4FAB507F0075C2
:10EE2D0042588A828B838FF012E5F402EC47AA4F89
:10EE3D00AB507F008551598C578D588A828B838FAB
:10EE4D00F012E51E02EC47AA4BAB4C7F80854D437B
:10EE5D00854E447545438A828B838FF012E70B02F2
:10EE6D00EC478C0B8D0C854F8285508312F26F020F
:10EE7D00EC4790029FE02401F090029FE02401F006
:10EE8D00E54F7007E550700302EC4790029DE54F8A
:10EE9D00F0A3E550F0E4F54FF55090029FE024010A
:10EEAD00F0E54F7004E5506002800A900291E0FA9F
:10EEBD00A3E0FB8004AA4FAB50900294EAF0A3EBC1
:10EECD00F0900293E4F0E554B40B047A0180027AD9
:10EEDD000090029CEAF012F77A02EC4712E99102D7
:10EEED00EC4712E11D02EC4730041790028CEEF056
:10EEFD00A3E4F0AA507B0090028EEAF0A3EBF0029F
:10EF0D00EC4790028EE0FAA3E08A037C0090028C1D
:10EF1D00E0FFA3E0FAEF2CF582EA3BF58312EA85D8
:10EF2D0002EC4730040D900291E54FF0A3E550F04F
:10EF3D0002EC47900291E0FAA3E0FB8A828B8312E8
:10EF4D00EA8502EC47900289E0FA530218E5222A7D
:10EF5D0024D0FA30040FEA2400F582E43402F5835C
:10EF6D00EEF002EC47EA2400F582E43402F583E08A
:10EF7D00FBF58212E4E112E09802EC47E52324D080
:10EF8D00FA300419EA75F002A42480F58274023572
:10EF9D00F0F583E54FF0A3E550F002EC47EA75F08C
:10EFAD0002A42480F582740235F0F583E0FBA3E022
:10EFBD00FF8B828F8312EA8502EC477A00BA040038
:10EFCD00400302EC47EA75F002A42480F582740236
:10EFDD0035F0F583E0FFA3E0FB8F828B83C0021237
:10EFED00EA85D0020A80D6755708E4F558755900A0
:10EFFD0090028075F00012E51E02EC4712E36B02E1
:10F00D00EC4790F9BA75F080C004C005C00612EA4D
:10F01D008F858253D006D005D004E553B4FF02800E
:10F02D001174F85553FF7407555390FB9193F55395
:10F03D00802590F86D75F080C004C005C00612EAF9
:10F04D008FAF82D006D005D00430050B74075E90CB
:10F05D00FB9193F5538C06BFFF0302F17BE4BFD008
:10F06D000104FC6007900289E0FA8059BFE0079027
:10F07D000288E0FA804FBFF00790028AE0FA8045DF
:10F08D00BFA80790028BE0FA803BBF8107900290EA
:10F09D00E0FA8031BF820C90028CE0FDA3E0FB8D85
:10F0AD00028022BF830C90028EE0FBA3E0FD8B0259
:10F0BD0080138F82C004C006C00712E318AA82D045
:10F0CD0007D006D004E553B4FF0474018001E4FBBE
:10F0DD00700FEE6006E5534AFE8006E553F4FD5AC7
:10F0ED00FEBFB00A740355B0FD74FC5E4DFE3004D6
:10F0FD005BEC6008900289EEF002EC47BFE00890EF
:10F10D000288EEF002EC47BFF00890028AEEF002A2
:10F11D00EC47BFA80890028BEEF002EC47BF8108C8
:10F12D00900290EEF002EC47BF820B90028CEEF055
:10F13D00A3E4F002EC47BF830B90028EEEF0A3E444
:10F14D00F002EC478E8212E36702EC47EB60078A10
:10F15D008212E4E1801210990280FBE5535A60049B
:10F16D007A3180027A308A9912E09802EC4790FC4D
:0AF17D002675F08012E38D02EC47C6
:10FB15008044814D448246448349844D4985464904
:10FB25008658874D5888465889438A558B478C5344
:10FB35008D528E4C8F445054529050439154925252
:10FB450030935231945232955233965234975235FE
:10FB55009852369952379A54529B47429C4252309A
:10FB65009D4252319E4252329F425233A04252A18F
:10FB7500425243A2504352A3A400003031323334E1
:10FB850035363738394142434445460001020408B9
:10FB950010204080082008003E20003C537061631F
:10FBA500653E3D6C696E65203C456E7465723E3DF3
:10FBB50070616765203C4553433E3D73746F700D1E
:10FBC500003A202000202020004120004220005340
:10FBD50050004945004450480044504C005053578C
:10FBE5000050433D0042414E4B20000A0A434D4F11
:10FBF5004E35312056312E300A436F707952696780
:10FC05006874202863292032303035204A657375A1
:10FC1500732043616C76696E6F2D46726167610A68
:08FC250000576861743F0A00FA
:10F18700AA82AB0A050AEB2421F8EAC4540F90FBC4
:10F197008093FBF6AB0A050AEB2421F8740F5A900B
:10F1A700FB8093FBF68A8212E4E110990280FB75DB
:10F1B700992022AA82AB83ACF08A828B838CF012CF
:10F1C700F851FD6016BD80005011AE0A050AEE2405
:10F1D70021F8A6050ABA00E10B80DE22AA82AB83DA
:10F1E700AC0A050AEC2421F8EBC4540FFC7D00534C
:10F1F700040F7D00EC2480F582ED34FBF583E49366
:10F20700FCF6AC0A050AEC2421F88B047D005304B4
:10F217000F7D00EC2480F582ED34FBF583E493FC4D
:10F22700F6AC0A050AEC2421F88A04EBC4CCC454D2
:10F237000F6CCC540FCC6CCCFD53040F7D00EC2429
:10F2470080F582ED34FBF583E493FCF6AC0A050AFE
:10F25700EC2421F853020F7B00EA2480F582EB347B
:10F26700FBF583E493FAF622AA82AB83750F008A33
:10F27700158B16E50B7004E50C60028006750B0113
:10F28700E4F50CAD0BAE0C150B74FFB50B02150CAA
:10F29700ED4E70012285158285168312E50290FFD7
:10F2A7004575F08012E38D851582851683E493FDFD
:10F2B700F582C00512E4E1D00510990280FB75992B
:10F2C70020750A017521097E007F007C00EF244D1F
:10F2D700F582EC34FCF583E493FA6011EDB5060290
:10F2E700800BBA0A010E0FBF00E30C80E08F028C7F
:10F2F70003EA244DF582EB34FCF583E493FCBC0A66
:10F30700070ABA00EC0B80E974075D4430F51774FF
:10F31700015D4430FEE4BD900104FD8A0D8B0EE5CE
:10F327000D244DF582E50E34FCF583E493FFBF0A07
:10F337000302F6D4C207BF41004030EF24A5402B9B
:10F34700EF24BF25E0F5F090FC2D5002058393FADA
:10F35700E5F00493FB7C808A828B838CF0C005C028
:10F367000612F1BAD006D00502F6C9BF2102807C89
:10F37700BF23028026BF25028070BF260302F58FB8
:10F38700BF2A0302F68CBF2E0302F531BF3A0302F0
:10F39700F610BF3F0302F6A902F6BFAA0A050AEA5A
:10F3A7002421F876230515E4B5150205168515827F
:10F3B700851683E493FAF582C005C00612F187D05B
:10F3C70006D005ED700302F6C90515E4B51502056B
:10F3D70016851582851683E493FAF582C005C00663
:10F3E70012F187D006D00502F6C9D2073007067A90
:10F3F700BA7BF980047A6D7BF88A108B11751280BD
:10F407000515E4B515020516851582851683E4935F
:10F41700FFF582C005C006C00712E4E1D007D00699
:10F42700D00510990280FB7599207A00EF2480405F
:10F437000302F52185101885111985121A8518827E
:10F44700851983851AF012F851FB700302F4D4EB87
:10F45700B507660510E4B51002051185101B851167
:10F467001C85121D851B82851C83851DF012F85192
:10F47700FBBB8000E433FC851B10851C11851D1226
:10F48700EC6014AC0A050AEC2421F8A603051BE47A
:10F49700B51BD1051C80CDC374808AF063F08095BD
:10F4A700F0502AAB0A050AEB2421F8762EAB0A05A1
:10F4B7000AEB2421F8A60280140518E4B518020502
:10F4C70019851810851911851A1202F444851082BE
:10F4D7008511838512F012F851FB600302F6C9C348
:10F4E70074808AF063F08095F0500574075A4207DC
:10F4F700100702801574075F4430FA5307F8751038
:10F507006D7511F875128002F4338F82C005C0063D
:10F5170012F187D006D00502F6C98F82C005C00652
:10F5270012F187D006D00502F6C9C0060515E4B565
:10F5370015020516AA15AB16851582851683E49361
:10F54700FC3395E0FEEC2AFAEE3BFB74012AF51337
:10F55700E43BF514851382851483C005C00612F1B8
:10F56700E3D006D005851582851683E493FAF582E4
:10F57700C005C00612E4E1D006D005D006109902F6
:10F5870080FB75992002F6C9C0068515828516830A
:10F59700E493FAC4035407FAAB15AC1674022BFBB9
:10F5A700E43CFC8C037C005303F8E4FCFEEA4203D2
:10F5B700EE42048B070515E4B5150205168F028A7E
:10F5C700037A00851582851683E493FC7E002AF56D
:10F5D70013EE3BF514851382851483C005C006120C
:10F5E700F1E3D006D005851582851683E493FAF5F5
:10F5F70082C005C00612E4E1D006D005D0061099F6
:10F607000280FB75992002F6C90515E4B5150205B8
:10F6170016851582851683E493FA8A037C008B147A
:10F627007513008A82C005C00612E4E1D006D00532
:10F6370010990280FB7599200515E4B5150205168A
:10F64700851582851683E493FAF582C005C00612F4
:10F65700E4E1D006D00510990280FB759920851545
:10F6670082851683E493FA7B002513F513EB351493
:10F67700F514851382851483C005C00612F1E3D003
:10F6870006D005803D90FF4875F080C005C0061282
:10F69700F1BAD006D005AA0A050AEA2421F8A60677
:10F6A7008020AA0A050AEA2421F87672AA0A050A1E
:10F6B700EA2421F8A617800AAA0A050AEA2421F8EB
:10F6C700A607050DE4B50D02050E02F326AA0A05E5
:10F6D7000AEA2421F8760AAA0A050AEA2421F87612
:10F6E7000090002175F04012E38D0515E4B5150271
:10F6F7000516050FE50FB41702800302F28A12E61A
:10F70700F6AF82BF1B0122BF2005150F02F28A75D3
:05F717000F0002F28A60
:10FC2D004BFF50FF55FF5AFF61FF68FF70FF77FFD5
:10FC3D007DFF84FF8BFF93FF99FFA0FFA6FFACFF15
:10FC4D006E6F700A48260A6C6A6D70093A0A7272F4
:10FC5D0009610A42610A42210A0A422A0A0A0A0A6B
:10FC6D000A0A0A0A423F0A6A626309252C2E0A44CF
:10FC7D00260A6C63616C6C093A0A72726320610A20
:10FC8D0043610A43210A0A432A0A0A0A0A0A0A0A8E
:10FC9D000A433F0A6A6209252C2E0A48260A726514
:10FCAD00740A726C09610A45230A45210A0A452A1C
:10FCBD000A0A0A0A0A0A0A0A453F0A6A6E620925F1
:10FCCD002C2E0A44260A726574690A726C630961E6
:10FCDD000A46230A46210A0A462A0A0A0A0A0A0A73
:10FCED000A0A463F0A6A63092E0A48260A6F726C91
:10FCFD0009212C610A6F726C09212C230A47230AF2
:10FD0D0047210A0A472A0A0A0A0A0A0A0A0A473F23
:10FD1D000A6A6E63092E0A44260A616E6C09212C4B
:10FD2D00610A616E6C09212C230A49230A49210AB3
:10FD3D000A492A0A0A0A0A0A0A0A0A493F0A6A7A73
:10FD4D00092E0A48260A78726C09212C610A7872EC
:10FD5D006C09212C230A4A230A4A210A0A4A2A0A33
:10FD6D000A0A0A0A0A0A0A4A3F0A6A6E7A092E0A1A
:10FD7D0044260A6F726C09632C250A6A6D7009405E
:10FD8D00612B500A41612C230A41212C230A0A417F
:10FD9D002A2C230A0A0A0A0A0A0A0A413F2C230AB4
:10FDAD00736A6D70092E0A48260A616E6C20632CE9
:10FDBD00250A6D6F766309612C40612B70630A64AF
:10FDCD0069760961620A41212C210A0A41212C2AF6
:10FDDD000A0A0A0A0A0A0A0A41212C3F0A41502C32
:10FDED00230A44260A41252C630A6D6F7663096147
:10FDFD002C40612B500A4B230A4B2E0A0A4B2A0A20
:10FE0D000A0A0A0A0A0A0A4B3F0A6F726C09632C26
:10FE1D002F2E0A48260A41632C250A42500A6D7579
:10FE2D006C0961620A64620961350A0A412A2C2152
:10FE3D000A0A0A0A0A0A0A0A413F2C210A616E6C53
:10FE4D0009632C2F2E0A44260A63706C09250A6358
:10FE5D00706C09630A4C612C23202E0A4C612C21F5
:10FE6D00202E0A0A4C2A2C23202E0A0A0A0A0A0AD4
:10FE7D000A0A4C3F2C23202E0A7075736809210A3B
:10FE8D0048260A636C7209250A636C7209630A734A
:10FE9D0077617009610A4D210A0A4D2A0A0A0A0A78
:10FEAD000A0A0A0A4D3F0A706F7009210A44260A90
:10FEBD007365746209250A7365746209630A646166
:10FECD002F74610A4E21202E0A0A78636864096135
:10FEDD002C2A0A0A0A0A0A0A0A0A4E3F2C2E0A4F2F
:10FEED00612C40500A48260A0A4F612C2A0A636C7D
:10FEFD007209610A41612C210A0A41612C2A0A0A00
:10FF0D000A0A0A0A0A0A41612C3F0A4F40502C6125
:10FF1D000A44260A0A4F2A2C610A63706C09610A89
:10FF2D0041212C610A0A412A2C610A0A0A0A0A0A8D
:10FF3D000A0A413F2C610A003A20004072006D6FA1
:10FF4D00760900696E630900646563090061636188
:10FF5D006C6C090061646409612C0061646463095F
:10FF6D00612C006F726C09612C00616A6D70090063
:10FF7D00616E6C09612C0078726C09612C007375CF
:10FF8D00626209612C00636A6E6509007863680915
:10FF9D00612C00646A6E7A09006D6F7678090064D1
:04FFAD0070747200FA
:10F71C00C2ABC0A8C2AFC083C082900288F0900276
:10F72C0089E5D0F090028AE5F0F090028CD0E0F000
:10F73C0090028ED0E0F090028BD0E0F0900292D04C
:10F74C00E0F0900291D0E0F0900290E581F0900210
:10F75C000075D000E8F07801A3E6F008B880F990C5
:10F76C0002937401F075815912E07302E062787FA4
:10F77C0090027FE0F61582D8FAE0F690028BE0F565
:10F78C00A890028AE0F5F0900289E0F5D090029002
:10F79C00E0F581900294E0C0E0A3E0C0E090028C20
:10F7AC00E0C0E090028EE0C0E090029CE060099026
:10F7BC000288E0D083D08232900288E0D083D0825D
:10F7CC0012E387D2AFD28AD2AB32AA82BA300040CF
:10F7DC0005EA24C65014BA61004005EA2499500A7F
:10F7EC00BA41004009EA24B94004758201227582AD
:10F7FC000022AA82BA20028017BA0C028012BA0A1E
:10F80C0002800DBA0D028008BA09028003BA0B04FB
:08F81C007582012275820022B1
:06E03500E478FFF6D8FDBF
:10E013007900E94400601B7A0090FFB178C175A0D4
:10E0230002E493F2A308B8000205A0D9F4DAF2756A
:02E03300A0FF4C
:10F8240020F71030F6118883A88220F507F6A88304
:09F8340075830022F280F7F02236
:10E03B007800E84400600A790075A000E4F309D881
:10E04B00FC78C1E84400600C7901900200E4F0A375
:04E05B00D8FCD9FA1A
:10F83D00AA82BA61004009EA24854004758201223A
:04F84D00758200229E
:0DE0060075815912E073E582600302E0624B
:10F8510020F71430F6148883A88220F507E6A883E0
:0CF8610075830022E280F7E49322E0228D
:00000001FF
