:06E0000002E00602F6FA40
:10E05F0002E06212E06F80FE8582FF2285FF82223E
:10E06F0002EC082275A800C28E740F55894420F562
:10E07F0089438780758DFFD28E75985275820022E5
:10E08F0010980280FB8599822210990280FB759966
:10E09F000A10990280FB75990D22AA82AB83C3EAFD
:10E0AF009400EB94E040012275B1007902E51C1257
:10E0BF001FF075B10122AA82AB83C3EA9400EB94DF
:10E0CF00E0500B75B1007908121FF075B101C3EA6A
:10E0DF009480EB94005036751C0290000012E0A95A
:10E0EF00751CE090000112E0A9751C00900002124F
:10E0FF00E0A9751C0290001B12E0A9751CE09000AE
:10E10F001C12E0A9751C0390001D02E0A9229002C9
:10E11F0096E4F0900299F090FA7A75F08012E390FD
:10E12F007A007B00C3EA9400EB94E0502C8A0474CD
:10E13F00075BFDBC000BBD000810990280FB7599B1
:10E14F002E8A828B83C002C00312E0C5D003D00297
:10E15F0074802AFAE43BFB80CB90FA8275F0801230
:10E16F00E390C200C20112E08FAA82BA1B0302E23F
:10E17F00BBBA3AF212E547AB82C00312E547AC8255
:10E18F00D0037D00EC2BFE8C057C00C003C004C0C7
:10E19F0005C00612E547AA82D006D005D004D003E9
:10E1AF00EA2EFE8A077800EF2CFCE83DFDC003C085
:10E1BF0004C005C00612E547AF82D006D005D004D3
:10E1CF00D003EF2EFE7800EB2CFBE83DF8E4BF0008
:10E1DF000104FFC3EC9BED98400302E28BC003C028
:10E1EF0004C005C006C007C00012E547AA82D000D0
:10E1FF00D007D006D005D004D003EA2EFEEF60740E
:10E20F00C374029CE49D5045C3EC941BED940040F5
:10E21F0007741D9CE49D50358A1C8C828D83C0022F
:10E22F00C003C004C005C006C007C00012E0A9D0DB
:10E23F0000D007D006D005D004D003D0028C828D39
:10E24F0083E493F9B50202802BD2018027C3EC94AB
:10E25F0003ED9400500EEC2496F582ED3402F58315
:10E26F00EAF080108C01E924E52499F582E4340268
:10E27F00F583EAF00CBC00010D02E1E2C006C00715
:10E28F0012E547AA82D007D006EA2EFEEF601DBE28
:10E29F000002800DD20010990280FB75995802E19F
:10E2AF007510990280FB75992E02E17530000B9065
:10E2BF00FA9775F08012E390801730010B90FAA94E
:10E2CF0075F08012E390800990FAB875F08012E330
:10E2DF009030980312E08F900296E0FABA021B90EA
:10E2EF000298E0F51C90DFFE12E0A9900297E0F58E
:10E2FF001C90DFFF12E0A912E36E900299E0FABAC8
:10E30F0002012290FAC075F08002E390AA8290DF9A
:10E31F0000C00212E0C5D0027B00BB080050218B69
:10E32F00047D0074DF2DFDEB90E06793F51C8C826C
:10E33F008D83C002C00312E0A9D003D0020B80DA94
:10E34F008A1C90DF02C00212E0A9D0028A1C90DF63
:10E35F000512E0A902DF047582002202DF0022907D
:10E36F00DFFEE493FA740193FB900291EAF0A3EBC2
:10E37F00F02290FADD75F08002E390D2BB43B780B4
:01E38F00226B
:0300000002E0001B
:03001B0002E003FD
:02DFFE00000021
:10F84B008050308153508244504C834450488557EC
:10F85B004454448653504452865350444154875029
:10F86B00434F4E8854434F4E89544D4F448A544C0A
:10F87B00308B544C318C5448308D5448318E41551B
:10F88B0058529050319853434F4E9953425546A07E
:10F89B005032A24155585231A84945A953414444CD
:10F8AB0052AA53505352AA5350434647B05033B108
:10F8BB00464346B6465354B749503048B84950B9F9
:10F8CB00534144454EC057445443C85432434F4EA2
:10F8DB00C954324D4F44CA52434150324CCB524320
:10F8EB0041503248CC544C32CD544832D0505357FF
:10F8FB00D553504352D5535043544CD843434F4E9A
:10F90B00D9434D4F44DA434341504D30DB434341E0
:10F91B00504D31DC434341504D32DD434341504D5B
:10F92B0033DE434341504D34E0414343E041E8492A
:10F93B00454E31E9434CEA43434150304CEB434392
:10F94B004150314CEC43434150324CED4343415019
:10F95B00334CEE43434150344CF042F7495031485D
:10F96B00F8495031F94348FA434341503048FB437F
:10F97B004341503148FC434341503248FD434341DE
:10F98B00503348FE434341503448FF0000884954EC
:10F99B0030894945308A4954318B4945318C545211
:10F9AB00308D5446308E5452318F544631985249D3
:10F9BB009954499A5242389B5442389C52454E9D19
:10F9CB00534D329E534D319F534D30A8455830A95E
:10F9DB00455430AA455831AB455431AC4553AF452E
:10F9EB0041B8505830B9505430BA505831BB5054BC
:10F9FB0031BC5053BD505432D050D14631D24F56FA
:10FA0B00D3525330D4525331D54630D64143D743DA
:10FA1B0059C843505F524C32C9435F5432CA545297
:10FA2B0032CB4558454E32CC54434C4BCD52434CC4
:10FA3B004BCE45584632CF544632AD455432DF4358
:10FA4B0046DE4352DC43434634DB43434633DA431F
:10FA5B00434632D943434631D843434630AE454300
:10FA6B00EB45424FBE505043FB50424FFF00004509
:10FA7B00726173696E67000A53656E642066696C08
:10FA8B0065206F72203C4573633E0A000A4368652C
:10FA9B00636B73756D206572726F72210A000A4673
:10FAAB006C617368206572726F72210A000A446F71
:10FABB006E652E0A005741524E494E473A206D69EA
:10FACB007373696E672054696D657231206A6D704E
:10FADB000A00506F72743A205038395635315244FF
:08FAEB00322056312E310A00D1
:10E39000AA82AB83ACF08A828B838CF012F82FFDBB
:10E3A00024FF5028BD8000502310990280FB8A82F0
:10E3B0008B838CF012F82FFD8D99BD0A08109902FD
:10E3C00080FB75990D0ABA00CD0B80CA2210990204
:10E3D00080FB75990D7A00BA4F00500B109902809E
:10E3E000FB7599200A80F010990280FB75990D2227
:10E3F0007A00C00212E08FAB82D002BB080280120A
:10E40000BB0A028028BB0D028023BB16028050028B
:10E41000E49DEA60DD90FB7775F080C00212E39026
:10E42000D0028A041AEC2421F8760080C5C00212BA
:10E43000E098D002EA2421F87600EA60219002C038
:10E44000EAF07C00C3EA9C4015EC24A0F582E43499
:10E4500002F583EC2421F88605EDF00C80E622120B
:10E46000E3CD9002C0E0FA90FB7B75F080C0021211
:10E47000E390D0027C00C3EA9C500302E3F2EC2458
:10E4800021F8EC24A0F582E43402F583E0FDF610D7
:10E49000990280FBEC2421F886990C80D9BA1F00E0
:10E4A00050138A040AEC2421F8A60310990280FB79
:10E4B0008B9902E3F210990280FB75990702E3F24F
:10E4C000AA82C00212F81BE582D002600674DF5AED
:10E4D000FB80028A03EB24D0FA24F65004EA24F9E4
:10E4E000FA8A8222AA8210990280FBEAC4540FFBA6
:10E4F00090FB5E93F59910990280FB740F5A90FB84
:10E500005E93F59922AA82AB838B047D008C82C036
:10E5100002C00312E4E4D003D0027B008A8202E44A
:10E52000E4AA82AB83ACF0AD1CAE1DED4E60178A41
:10E53000828B838CF0E51E12F802A3AA82AB831DA6
:10E54000BDFFE81E80E52212E08F12E4C0E582FAEA
:10E55000C454F0FAC00212E08FD002C00212E4C02C
:10E56000AB82D002EB2AF582227A007B007C00BCD1
:10E570000200400302E5F0C002C003C00412E08FB5
:10E58000AD82D004D003D00210990280FBE4BD20FC
:10E590000104FE60047F7880028D078F998D82C010
:10E5A00002C003C004C005C00612F7B4E582D0065D
:10E5B000D005D004D003D0027019C202EE600FD291
:10E5C00003BB000C10990280FB7599788002C2038E
:10E5D0008A8222EAC454F0FE8D82C004C00612E48E
:10E5E000C0AD82D006D004ED2EFA0C8C0302E56F8C
:10E5F000D203D2028A8222AA82AB83ACF07D00BD14
:10E600000062C002C003C004C00512E098D005D06B
:10E6100004D003D00210990280FBAE428E9910996B
:10E620000280FB75993ABE44028003BE49178A8274
:10E63000C002C003C004C00512E4E4D005D004D079
:10E6400003D00280178A828B83C002C003C004C03B
:10E650000512E505D005D004D003D0021099028040
:10E66000FB75993A10990280FB7599208A828B83F9
:10E670008CF012F82FFEF582C002C003C004C00562
:10E6800012E4E4D005D004D003D00210990280FB3C
:10E6900075992EC002C003C004C00512E569AE82A0
:10E6A000D005D004D003D00220020330034830024A
:10E6B0000A8A828B838CF0EE12F80210990280FB9A
:10E6C00075990810990280FB7599088A828B838C52
:10E6D000F012F82FFEA3AA82AB838E82C002C00381
:10E6E000C004C00512E4E4D005D004D003D0020D6C
:10E6F00053050702E5FF02E09890FB7E75F080125B
:10E70000E3903098FD12E3CDC298859982228582EC
:10E710004685834785F048754900E5437004E54424
:10E7200060028006754380E4F5447531007E007F09
:10E7300000C3EE9543EF9544400122EE2546FDEFE0
:10E740003547FAAB488D828A838BF012F82FFA7422
:10E750000F5EFB7C00BB0002800302E7CA10990237
:10E7600080FBAC458C9910990280FB75993ABC44AA
:10E77000028003BC491CAC46EEFD2CF582C002C0F1
:10E7800003C006C00712E4E4D007D006D003D002CD
:10E79000801FAC46AD47EE2CF582EF3DF583C002FD
:10E7A000C003C006C00712E505D007D006D003D0CD
:10E7B0000290FBA475F080C002C003C006C007121F
:10E7C000E390D007D006D003D0028A82C002C003F3
:10E7D000C006C00712E4E4D007D006D003D0021070
:10E7E000990280FBBB07047C2D80027C208C99EA77
:10E7F00024DF500DBA7F005008EB2421F8A60280D8
:10E8000006EB2421F8762EBB0F5890FBA875F080FC
:10E81000C006C00712E390D007D00690002175F023
:10E8200040C006C00712E390D007D006C006C0075C
:10E8300012E098D007D0060549E549B41724C3EE85
:10E840009543EF9544501BC006C00712E6F9AA8213
:10E85000D007D006BA1B0122BA20041549800375DF
:10E8600049000EBE00010F02E731C204C2057A0062
:10E87000BA20005063EA2421F88682C002C0001248
:10E88000F81BE582D000D002600BEA2421F987034F
:10E890005303DF8006EA2421F98703A603EA242133
:10E8A000F88682C00212F7DCE582D0026006EA2414
:10E8B00021F87600EA2421F88603BB3D067600D2D3
:10E8C0000480128603BB2E028003BB5F08EA24216A
:10E8D000F87600D2050A80987A007B00BB200050B1
:10E8E00024EA2421F8EB2421F98704A604BC000DB6
:10E8F00074012B2421F88604BC00028005E5216008
:10E90000010A0B80D7BA20005009EA2421F87600CA
:10E910000A80F2227A007B00E5412421F88604BCBB
:10E92000000280418C82C002C00312F7B4E582D09D
:10E9300003D002602C8A04EBC454F0CCC4CC6CCC61
:10E9400054F0CC6CFDE5412421F88682C004C0055A
:10E9500012E4C0AE82D005D0047F00EE2CFAEF3D69
:10E96000FB054180B305418A828B8322AA82AB8357
:10E97000ACF012E39010990280FB75993D854A82B4
:10E9800012E4E410990280FB75992010990280FB33
:10E990007599202212E098900288E0F54A90FBAC2D
:10E9A00075F08012E96C90028AE0F54A90FBAF7531
:10E9B000F08012E96C900290E0F54A90FBB275F09D
:10E9C0008012E96C90028BE0F54A90FBB575F080FF
:10E9D00012E96C90028EE0FAA3E0FB8A4A90FBB841
:10E9E00075F08012E96C90028CE0FAA3E0FB8A4A91
:10E9F00090FBBC75F08012E96C900289E0F54A90BA
:10EA0000FBC075F08012E96C90FBC475F08012E3D6
:10EA100090900291E0FAA3E0FB8A828B8312E505D5
:10EA200012E098900289E0FAC423541FFA530203BB
:10EA3000752152752300EAC40354F8FB7C00BC081E
:10EA400000502B74302CF522EB2C2400F582E4349A
:10EA500002F583E0F54A90002175F040C002C00342
:10EA6000C00412E96CD004D003D0020C80D090FB1B
:10EA7000C875F080C00212E390D00210990280FBAA
:10EA800074302AF59902E098AA82AB8312E5050258
:10EA9000E098AA82AB83ACF07DFF8A828B838CF0F6
:10EAA00012F82FFE6067EE2480505B8E050ABA00D4
:10EAB000010B8A1D8B1E8C1F751C00851D82851EF7
:10EAC00083851FF012F82FFF24804017E51C2421B6
:10EAD000F88606EFB5060C051DE4B51D02051E05FA
:10EAE0001C80D8AA1DAB1EAC1F851D82851E838588
:10EAF0001FF012F82FFE2480500CE51C2421F8860C
:10EB000006BE000280070ABA00900B808D8A828BB5
:10EB1000838CF012F82F60038D82227582FF229081
:10EB20000293E4F0C20690029FE0FA700302EBC782
:10EB300090029FE0FABA012D7A00BA04005026EA4A
:10EB40002AFB2480F582E43402F583E0FBA3E0FC99
:10EB5000900291E0FDA3E0FEEBB50506ECB50602E0
:10EB6000D2060A80D590029DE0FAA3E0FB900291C4
:10EB7000E0FCA3E0FDEAB50406EBB5050280489091
:10EB8000029FE0FABA02004015750901E4F50A9007
:10EB90000294E0FAA3E0FB8A828B8312F24E209863
:10EBA00026A206B3E433FA601E90029FE0FABA038D
:10EBB0000312E994900291E0FAA3E0FB900294EA38
:10EBC000F0A3EBF012F75890029FE0FABA0200406F
:10EBD0001DA298B3E433FA6015750901E4F50A90B3
:10EBE0000294E0FAA3E0FB8A828B8312F24EC29871
:10EBF00012E994750901E4F50A900291E0FAA3E0A4
:10EC0000FB8A828B8302F24E900293E0FABA0102F1
:10EC1000801A90FBCE75F08012E39012E38190028F
:10EC2000907407F012E36E755400800312EB1F908E
:10EC3000FB7B75F08012E390751C20E4F51D751EBA
:10EC40000090002175F04012E52112E3F012E86A0D
:10EC500090029DE4F0A3F090029FE4F07541001251
:10EC6000E91412E91485824F85835012E914AC82AD
:10EC7000AD83C004C00512E914858251858352D04A
:10EC800005D00474F0554FF54B85504C740F2CFE95
:10EC9000E43DFF74F05EF54D8F4EAE4F90FAF37584
:10ECA000F080C004C005C00612EA92E582D006D00A
:10ECB00005D004547FF554E554FF24DC500302EFE3
:10ECC000EEEF240983C0E0EF242783C0E022192D52
:10ECD0004C859FBCF30E233C579696D1D7DD186E1A
:10ECE0003A3A3A3A3A3A3A3A678F71717171AAD31D
:10ECF000E816EDEDEDEDEDEDEDEEEEEEEEEEEEEE19
:10ED0000EEEEEFEEEFEFEFEFEFEFEFEFEEEEEFEF18
:10ED1000EFEFEFEFEFED02EC2FE4F543F54475452F
:10ED20004490020075F00012E70E02EC2F747F553C
:10ED30004FFF7A002400FFEA3402FA7B0075424458
:10ED40008F828A838BF012E5F702EC2F747F554F88
:10ED5000FA7B002400FAEB3402FB7F00C374809C32
:10ED6000E49D5008755580E4F55680048C558D5609
:10ED700085511E85551C85561D8A828B838FF01206
:10ED8000E52102EC2F7A807B007F40E4F543F544D7
:10ED90007545498A828B838FF012E70E02EC2F743F
:10EDA0007F554FFA7B004302807B007F40754249CC
:10EDB0008A828B838FF012E5F702EC2F747F554F18
:10EDC000FA7B004302807B007F40C374809CE49DFB
:10EDD0005008755580E4F55680048C558D56855144
:10EDE0001E85551C85561D8A828B838FF012E52166
:10EDF00002EC2FAA4BAB4C7F00854D43854E4475EA
:10EE000045588A828B838FF012E70E02EC2FAA4FAF
:10EE1000AB507F007542588A828B838FF012E5F7E2
:10EE200002EC2FAA4FAB507F0085511E8C1C8D1D0C
:10EE30008A828B838FF012E52102EC2FAA4BAB4C18
:10EE40007F80854D43854E447545438A828B838FF1
:10EE5000F012E70E02EC2F8C098D0A854F82855047
:10EE60008312F24E02EC2F90029FE02401F09002F8
:10EE70009FE02401F0E54F7007E550700302EC2F8E
:10EE800090029DE54FF0A3E550F0E4F54FF550906A
:10EE9000029FE02401F0E54F7004E5506002800A13
:10EEA000900291E0FAA3E0FB8004AA4FAB509002DD
:10EEB00094EAF0A3EBF0900293E4F0E554B40B0471
:10EEC0007A0180027A0090029CEAF012F75802EC74
:10EED0002F12E99402EC2F12E11D02EC2F300417DF
:10EEE00090028CEEF0A3E4F0AA507B0090028EEA30
:10EEF000F0A3EBF002EC2F90028EE0FAA3E08A037D
:10EF00007C0090028CE0FFA3E0FAEF2CF582EA3B54
:10EF1000F58312EA8802EC2F30040D900291E54F40
:10EF2000F0A3E550F002EC2F900291E0FAA3E0FB91
:10EF30008A828B8312EA8802EC2F900289E0FA53CE
:10EF40000218E5222A24D0FA30040FEA2400F582C0
:10EF5000E43402F583EEF002EC2FEA2400F582E4BB
:10EF60003402F583E0FBF58212E4E412E09802EC4F
:10EF70002FE52324D0FA300416EA2AFB2480F582F8
:10EF8000E43402F583E54FF0A3E550F002EC2FEAFC
:10EF90002AFB2480F582E43402F583E0FBA3E0FF42
:10EFA0008B828F8312EA8802EC2F7A00BA04004029
:10EFB0000302EC2FEA2AFF2480F582E43402F58371
:10EFC000E0FFA3E0FB8F828B83C00212EA88D002AD
:10EFD0000A80D9751C08E4F51D751E009002807525
:10EFE000F00012E52102EC2F12E36E02EC2F90F9F3
:10EFF0009875F080C004C005C00612EA928582535D
:10F00000D006D005D004E553B4FF02801174F85542
:10F0100053FF7407555390FB6F93F553802590F879
:10F020004B75F080C004C005C00612EA92AF82D0D2
:10F0300006D005D00430050B74075E90FB6F93F586
:10F04000538C06BFFF0302F15AE4BFD00104FC60F9
:10F0500007900289E0FA8059BFE007900288E0FA41
:10F06000804FBFF00790028AE0FA8045BFA8079062
:10F07000028BE0FA803BBF8107900290E0FA80317A
:10F08000BF820C90028CE0FDA3E0FB8D028022BFCA
:10F09000830C90028EE0FBA3E0FD8B0280138F8235
:10F0A000C004C006C00712E31BAA82D007D006D056
:10F0B00004E553B4FF0474018001E4FB700FEE60BB
:10F0C00006E5534AFE8006E553F4FD5AFEBFB00A3A
:10F0D000740355B0FD74FC5E4DFE30045BEC6008BB
:10F0E000900289EEF002EC2FBFE008900288EEF06B
:10F0F00002EC2FBFF00890028AEEF002EC2FBFA8BE
:10F100000890028BEEF002EC2FBF8108900290EE87
:10F11000F002EC2FBF820B90028CEEF0A3E4F00221
:10F12000EC2FBF830B90028EEEF0A3E4F002EC2FE5
:10F130008E8212E36A02EC2FEB60078A8212E4E40B
:10F14000801210990280FBE5535A60047A318002E4
:10F150007A308A9912E09802EC2F90FC0A75F080C0
:06F1600012E39002EC2F07
:10FAF3008044814D448246448349844D4985464927
:10FB03008658874D5888465889438A558B478C5366
:10FB13008D528E4C8F445054529050439154925274
:10FB23003093523194523295523396523497523520
:10FB33009852369952379A54529B47429C425230BC
:10FB43009D4252319E4252329F425233A04252A1B1
:10FB5300425243A2504352A3A40000303132333403
:10FB630035363738394142434445460001020408DB
:10FB730010204080082008003E20003C5370616341
:10FB8300653E3D6C696E65203C456E7465723E3D15
:10FB930070616765203C4553433E3D73746F700D40
:10FBA300003A202000202020004120004220005362
:10FBB30050004945004450480044504C00505357AE
:10FBC3000050433D0042414E4B20000A0A434D4F33
:10FBD3004E35312056312E320A436F7079526967A0
:10FBE30068742028632920323030352C203230309D
:10FBF30036204A657375732043616C76696E6F2D89
:0EFC030046726167610A00576861743F0A002B
:10F16600AA82AB080508EB2421F8EAC4540F90FBE9
:10F176005E93FBF6AB080508EB2421F8740F5A9052
:10F18600FB5E93FBF68A8212E4E410990280FB751B
:10F19600992022AA82AB83ACF08A828B838CF012F0
:10F1A600F82FFD6016BD80005011AE080508EE244C
:10F1B60021F8A6050ABA00E10B80DE22AA82AB83FB
:10F1C600AC080508EC2421F8EBC4540FFC7D005371
:10F1D600040F7D00EC245EF582ED34FBF583E493A9
:10F1E600FCF6AC080508EC2421F88B047D005304DA
:10F1F6000F7D00EC245EF582ED34FBF583E493FC91
:10F20600F6AC080508EC2421F88A04EBC4CCC454F7
:10F216000F6CCC540FCC6CCCFD53040F7D00EC244A
:10F226005EF582ED34FBF583E493FCF6AC08050845
:10F23600EC2421F853020F7B00EA245EF582EB34BE
:10F24600FBF583E493FAF622AA82AB83750D008A56
:10F25600138B14E5097004E50A600280067509013E
:10F26600E4F50AAD09AE0A150974FFB50902150AD7
:10F27600ED4E70012285138285148312E50590FFF9
:10F286002975F08012E390851382851483E493FD3B
:10F29600F582C00512E4E4D00510990280FB759949
:10F2A600207508017521097E007F007C00EF24315E
:10F2B600F582EC34FCF583E493FA6011EDB50602B1
:10F2C600800BBA0A010E0FBF00E30C80E08F028CA0
:10F2D60003EA2431F582EB34FCF583E493FCBC0AA3
:10F2E600070ABA00EC0B80E974075D4430F5157423
:10F2F600015D4430FEE4BD900104FD8A0B8B0CE5F4
:10F306000B2431F582E50C34FCF583E493FFBF0A48
:10F316000302F6B2C207BF4100402AEF24A54025EA
:10F32600EF24BFFA25E090FC1193FA740193FB7C5D
:10F33600808A828B838CF0C005C00612F199D006B4
:10F34600D00502F6A7BF2102807CBF23028026BF1C
:10F3560025028070BF260302F56DBF2A0302F66AF6
:10F36600BF2E0302F50FBF3A0302F5EEBF3F0302BD
:10F37600F68702F69DAA080508EA2421F8762305F1
:10F3860013E4B513020514851382851483E493FAF6
:10F39600F582C005C00612F166D006D005ED7003F1
:10F3A60002F6A70513E4B513020514851382851426
:10F3B60083E493FAF582C005C00612F166D006D042
:10F3C6000502F6A7D2073007067A987BF980047AF9
:10F3D6004B7BF88A0E8B0F7510800513E4B513026C
:10F3E6000514851382851483E493FF7A00EF248045
:10F3F600400302F4FF850E16850F17851018851633
:10F40600828517838518F012F82FFB700302F4B279
:10F41600EBB50702800302F49E8F82C002C005C0CE
:10F4260006C00712E4E4D007D006D005D002109932
:10F436000280FB759920050EE4B50E02050F850EB8
:10F4460019850F1A85101B851982851A83851BF06D
:10F4560012F82FFBBB80005014AC080508EC2421E1
:10F46600F8A6030519E4B519DE051A80DA85190E22
:10F47600851A0F851B10C374808AF063F08095F09F
:10F48600502AAB080508EB2421F8762EAB080508B0
:10F49600EB2421F8A60280140516E4B5160205171A
:10F4A60085160E85170F85181002F404850E8285C1
:10F4B6000F838510F012F82FFB600302F6A7C374C2
:10F4C600808AF063F08095F0500574075A42071061
:10F4D6000702801574075F4430FA5307F8750E4B20
:10F4E600750FF875108002F3F38F82C005C00612FF
:10F4F600F166D006D00502F6A78F82C005C00612B7
:10F50600F166D006D00502F6A7C0060513E4B513CA
:10F51600020514AA13AB14851382851483E493FCA5
:10F526003395E0FEEC2AFAEE3BFB74012AF511E472
:10F536003BF512851182851283C005C00612F1C201
:10F54600D006D005851382851483E493FAF582C02C
:10F5560005C00612E4E4D006D005D0061099028054
:10F56600FB75992002F6A7C006851382851483E4ED
:10F5760093FAC4035407FAAB13AC1474022BFBE4DE
:10F586003CFC8C037C005303F8E4FCFEEA4203EEE9
:10F5960042048B070513E4B5130205148F028A0390
:10F5A6007A00851382851483E493FC7E002AF51184
:10F5B600EE3BF512851182851283C005C00612F155
:10F5C600C2D006D005851382851483E493FAF582AA
:10F5D600C005C00612E4E4D006D005D00610990294
:10F5E60080FB75992002F6A70513E4B513020514EE
:10F5F600851382851483E493FA8A037C008B127543
:10F6060011008A82C005C00612E4E4D006D00510B7
:10F61600990280FB7599200513E4B513020514853C
:10F626001382851483E493FAF582C005C00612E4BA
:10F63600E4D006D00510990280FB759920851382C7
:10F64600851483E493FA7B002511F511EB3512F549
:10F6560012851182851283C005C00612F1C2D0063A
:10F66600D005803D90FF2C75F080C005C00612F1D4
:10F6760099D006D005AA080508EA2421F8A606802E
:10F6860020AA080508EA2421F87672AA080508EADD
:10F696002421F8A615800AAA080508EA2421F8A656
:10F6A60007050BE4B50B02050C02F305AA080508CD
:10F6B600EA2421F8760AAA080508EA2421F8760041
:10F6C60090002175F04012E3900513E4B51302058E
:10F6D60014050DE50DB41702800302F26912E6F96E
:10F6E600AF82BF1B0122BF2005150D02F269750D01
:04F6F6000002F269B3
:10FC11002FFF34FF39FF3EFF45FF4CFF54FF5BFFD1
:10FC210061FF68FF6FFF77FF7DFF84FF8AFF90FF11
:10FC31006E6F700A48260A6C6A6D70093A0A727210
:10FC410009610A42610A42210A0A422A0A0A0A0A87
:10FC51000A0A0A0A423F0A6A626309252C2E0A44EB
:10FC6100260A6C63616C6C093A0A72726320610A3C
:10FC710043610A43210A0A432A0A0A0A0A0A0A0AAA
:10FC81000A433F0A6A6209252C2E0A48260A726530
:10FC9100740A726C09610A45230A45210A0A452A38
:10FCA1000A0A0A0A0A0A0A0A453F0A6A6E6209250D
:10FCB1002C2E0A44260A726574690A726C63096102
:10FCC1000A46230A46210A0A462A0A0A0A0A0A0A8F
:10FCD1000A0A463F0A6A63092E0A48260A6F726CAD
:10FCE10009212C610A6F726C09212C230A47230A0E
:10FCF10047210A0A472A0A0A0A0A0A0A0A0A473F40
:10FD01000A6A6E63092E0A44260A616E6C09212C67
:10FD1100610A616E6C09212C230A49230A49210ACF
:10FD21000A492A0A0A0A0A0A0A0A0A493F0A6A7A8F
:10FD3100092E0A48260A78726C09212C610A787208
:10FD41006C09212C230A4A230A4A210A0A4A2A0A4F
:10FD51000A0A0A0A0A0A0A4A3F0A6A6E7A092E0A36
:10FD610044260A6F726C09632C250A6A6D7009407A
:10FD7100612B500A41612C230A41212C230A0A419B
:10FD81002A2C230A0A0A0A0A0A0A0A413F2C230AD0
:10FD9100736A6D70092E0A48260A616E6C20632C05
:10FDA100250A6D6F766309612C40612B70630A64CB
:10FDB10069760961620A41212C210A0A41212C2A12
:10FDC1000A0A0A0A0A0A0A0A41212C3F0A41502C4E
:10FDD100230A44260A41252C630A6D6F7663096163
:10FDE1002C40612B500A4B230A4B2E0A0A4B2A0A3C
:10FDF1000A0A0A0A0A0A0A4B3F0A6F726C09632C43
:10FE01002F2E0A48260A41632C250A42500A6D7595
:10FE11006C0961620A64620961350A0A412A2C216E
:10FE21000A0A0A0A0A0A0A0A413F2C210A616E6C6F
:10FE310009632C2F2E0A44260A63706C09250A6374
:10FE4100706C09630A4C612C23202E0A4C612C2111
:10FE5100202E0A0A4C2A2C23202E0A0A0A0A0A0AF0
:10FE61000A0A4C3F2C23202E0A7075736809210A57
:10FE710048260A636C7209250A636C7209630A7366
:10FE810077617009610A4D210A0A4D2A0A0A0A0A94
:10FE91000A0A0A0A4D3F0A706F7009210A44260AAC
:10FEA1007365746209250A7365746209630A646182
:10FEB1002F74610A4E21202E0A0A78636864096151
:10FEC1002C2A0A0A0A0A0A0A0A0A4E3F2C2E0A4F4B
:10FED100612C40500A48260A0A4F612C2A0A636C99
:10FEE1007209610A41612C210A0A41612C2A0A0A1C
:10FEF1000A0A0A0A0A0A41612C3F0A4F40502C6142
:10FF01000A44260A0A4F2A2C610A63706C09610AA5
:10FF110041212C610A0A412A2C610A0A0A0A0A0AA9
:10FF21000A0A413F2C610A003A20004072006D6FBD
:10FF3100760900696E6309006465630900616361A4
:10FF41006C6C090061646409612C0061646463097B
:10FF5100612C006F726C09612C00616A6D7009007F
:10FF6100616E6C09612C0078726C09612C007375EB
:10FF7100626209612C00636A6E6509007863680931
:10FF8100612C00646A6E7A09006D6F7678090064ED
:04FF91007074720016
:10F6FA00C2ABC0A8C2AFC083C082900288F0900299
:10F70A0089E5D0F090028AE5F0F090028CD0E0F022
:10F71A0090028ED0E0F090028BD0E0F0900292D06E
:10F72A00E0F0900291D0E0F0900290E581F0900232
:10F73A000075D000E8F07801A3E6F008B880F990E7
:10F74A0002937401F075815612E07302E062787FC9
:10F75A0090027FE0F61582D8FAE0F690028BE0F587
:10F76A00A890028AE0F5F0900289E0F5D090029024
:10F77A00E0F581900294E0C0E0A3E0C0E090028C42
:10F78A00E0C0E090028EE0C0E090029CE060099048
:10F79A000288E0D083D08232900288E0D083D0827F
:10F7AA0012E38AD2AFD28AD2AB32AA82BA300040EE
:10F7BA0005EA24C65014BA61004005EA2499500AA1
:10F7CA00BA41004009EA24B94004758201227582CF
:10F7DA000022AA82BA20028017BA0C028012BA0A40
:10F7EA0002800DBA0D028008BA09028003BA0B041E
:08F7FA007582012275820022D4
:06E03500E478FFF6D8FDBF
:10E013007900E94400601B7A0090FF9578C175A0F0
:10E0230002E493F2A308B8000205A0D9F4DAF2756A
:02E03300A0FF4C
:10F8020020F71030F6118883A88220F507F6A88326
:09F8120075830022F280F7F02258
:10E03B007800E84400600A790075A000E4F309D881
:10E04B00FC78C1E84400600C7901900200E4F0A375
:04E05B00D8FCD9FA1A
:10F81B00AA82BA61004009EA24854004758201225C
:04F82B0075820022C0
:0DE0060075815612E073E582600302E0624E
:10F82F0020F71430F6148883A88220F507E6A88302
:0CF83F0075830022E280F7E49322E022AF
:00000001FF
