:04004F0002008232F7
:01005A003273
:01006200326B
:03006A000215FD7F
:01007200325B
:03007A000200DEA3
:0300DB0002007DA3
:05007D001200E680FE08
:0800DE008582FF2285FF8222CA
:0400E600020ADD220B
:0E00EA0075A800C28E740F5589F5F07420457C
:0E00F800F0F589438780758DFFD28E75985282
:0401060075820022DC
:05010A0010980280FBCB
:04010F00859982222A
:0501130010990280FBC1
:0301180075990ACC
:05011B0010990280FBB9
:0401200075990D229E
:0A01240090187375F0801202A9C252
:03012E0000C2010B
:0B01310012010AAA82BA1B030202316D
:0A013C00BA3AF212045E858208123E
:08014600045EAC82EC2508F513
:0C014E000A8C057C00C004C00512045E91
:0A015A00AA82D005D004EA250AF5B8
:0C0164000A8A077800EF2CFCE83DFDC083
:0C01700004C00512045E858209D005D091
:06017C0004E509250AF567
:080182000A8C008D01880B8935
:05018A000C750D008C56
:04018F000E8D0F754D
:050193001080A90BAC77
:040198000CAD0D8518
:03019C000E1185BC
:03019F000F1285B7
:0601A200101378007B0041
:0C01A800AF087E00C3E89FEB9E5054C0DF
:0E01B40003C004C005C000C00112045EAA8290
:0C01C200D001D000D005D004D003EA2505
:0401CE000AF50AE53F
:0B01D20009701E89828C838DF0EA12F8
:0601DD00170B851182855D
:0601E30012838513F012E7
:0801E9001738FEB50202800286
:0201F100D20139
:0501F30009B900010C38
:0701F8000511E4B511020539
:0101FF0012ED
:0702000008B800A40B80A167
:0902070012045EE582FA250AF5F5
:060210000AE509701CE57F
:050216000A600DD2009A
:05021B0010990280FBB8
:060220007599580201313E
:0502260010990280FBAD
:06022B0075992E0201315D
:0A02310030000B90188775F0801262
:04023B0002A980177D
:0A023F0030010B90189975F0801241
:0402490002A980097D
:09024D009018A875F0801202A9B6
:0602560030980312010ABA
:03025C0002029308
:04025F00AA827B00F4
:03026300BB0800D5
:0E026600501674F82BFCE4347FFDEB9000DEA4
:0A02740093FE8C828D83F00B80E571
:0E027E00907FFAEAF0907FFDEAF0027FFC75B7
:03028C00820022CB
:04028F00027FF822D0
:0A029300901F91E4F0A37420F02204
:09029D009018B075F0800202A96E
:0302A600D2BB22A6
:0300000002008279
:03000300022003D5
:03000B0002200BC5
:03001300022013B5
:03001B000215FDCE
:060023003098080215FDF3
:03002B0002202B85
:03002E00C2993242
:0E1754008050308153508244504C83445048A2
:0E1762008750434F4E8854434F4E89544D4F8D
:0E177000448A544C308B544C318C5448308D8C
:0E177E005448319050319853434F4E99534286
:0E178C005546A05032A84945B05033B84950D8
:0E179A00C85432434F4EC954324D4F44CA52C8
:0E17A800434150324CCB524341503248CC5456
:0E17B6004C32CD544832D0505357E04143439B
:0717C400E041F0428000004B
:0E17CB0088495430894945308A4954318B4948
:0E17D90045318C5452308D5446308E5452316E
:0E17E7008F5446319852499954499A524238CB
:0E17F5009B5442389C52454EA8455830A94599
:0E1803005430AA455831AB455431AC4553AD75
:0E181100455432AF4541B8505830B9505430AC
:0E181F00BA505831BB505431BC5053BD5054D8
:0E182D0032D050D14631D24F56D3525330D420
:0E183B00525331D54630D64143D74359C843A6
:0E184900505F524C32C9435F5432CA5452327F
:0E185700CB4558454E32CC54434C4BCD5243FA
:0E1865004C4BCE45584632CF544632FF000061
:0E18730053656E642066696C65206F72203CC0
:061881004573633E0A00FE
:0E1887000A436865636B73756D206572726F3E
:0418950072210A00B2
:0E1899000A5772697465206572726F72210AB7
:0118A7000040
:0818A8000A446F6E652E0A0070
:0E18B000506F72743A20383035322056312E87
:0318BE00310A00EC
:0602A900AA82AB83ACF059
:0E02AF008A828B838CF0121738FD6028BD8088
:0102BD000040
:0202BE005023CB
:0502C00010990280FB13
:0E02C5008A828B838CF0121738FD8D99BD0A4A
:0102D3000822
:0502D40010990280FBFF
:0302D90075990D07
:0702DC000ABA00CF0B80CC31
:0102E30022F8
:0502E40010990280FBEF
:0502E90075990D7A007B
:0302EE00BA4F0004
:0202F100500BB0
:0502F30010990280FBE0
:0602F8007599200A80F058
:0502FE0010990280FBD5
:0403030075990D22B9
:070307007A00901FC0E4F032
:0E030E00C00212010AAB82D002BB08028012AC
:05031C00BB0A0280286D
:05032100BB0D0280236A
:05032600BB1602804F30
:03032B000203B812
:0E032E00EA60DD90194975F080C0021202A944
:0C033C00D0028A041AEC2421F87600801C
:01034800C5EF
:0C034900C002120113D002EA2421F87651
:0B03550000EA6020901FC0EAF07C006E
:0C036000C3EA9C4014EC24A0F582E434B5
:0A036C001FF583EC2421F8E6FDF0F4
:030376000C80E711
:010379002261
:09037A001202E4901FC0E0FA90A9
:0E038300194D75F080C0021202A9D0027C0054
:08039100C3EA9C500302030EB5
:0A039900EC2421F8EC24A0F582E426
:0703A300341FF583E0FDF6B5
:0503AA0010990280FB28
:0903AF00EC2421F886990C80D998
:0303B800BA1F0069
:0B03BB0050138A040AEC2421F8A6036A
:0503C60010990280FB0C
:0503CB008B9902030EF6
:0503D00010990280FB02
:0603D50075990702030EFA
:0E03DB00AA82C002121724E582D002600674C6
:0503E900DF5AFB800259
:0203EE008A0380
:0C03F000EB24D0FA24F65004EA24F9FAB9
:0303FC008A8222D0
:0203FF00AA82D0
:0504010010990280FBD0
:0B040600EAC4540FFB90193093F599E5
:0504110010990280FBC0
:0A041600740F5A90193093F59922E3
:0D042000AA82AB838B048C82C002C0031241
:0B042D0003FFD003D0028A820203FF0D
:0A043800AA82AB83ACF0AD14AE1540
:0C044200ED4E60178A828B838CF0E5166B
:0E044E0012170BA3AA82AB831DBDFFE81E8010
:01045C00E5BA
:01045D00227C
:0E045E0012010A1203DBE582C454F0FAC00258
:0E046C0012010A1203DBAB82D002EB2AF582EA
:01047A00225F
:06047B007A007B007C000A
:03048100BC0200BA
:05048400400302050227
:0E048900C002C003C00412010AAD82D004D02C
:0304970003D0028D
:05049A0010990280FB37
:05049F00E4BD20010492
:0704A400FE60047F78800276
:0204AB008D07BB
:0E04AD008F998D82C002C003C004C005C00636
:0E04BB001216BDE582D006D005D004D003D0C5
:0A04C900027019C202EE600FD203A8
:0304D300EB700CBF
:0504D60010990280FBFB
:0504DB00759978800214
:0204E000C20355
:0304E2008A8222E9
:0E04E500EAC454F0FE8D82C004C0061203DB90
:0D04F300AD82D006D004ED2EFA0C8C030271
:02050000048174
:07050200D203D2028A82221B
:08050900AA82AB83ACF07D0077
:0E051100ED7062C002C003C004C005120113E9
:08051F00D005D004D003D00286
:0505270010990280FBA9
:04052C00AE428E99B4
:0505300010990280FBA0
:0805350075993ABE44028003EF
:03053D00BE49179D
:0E0540008A82C002C003C004C0051203FFD0AF
:09054E0005D004D003D00280178F
:0D0557008A828B83C002C003C004C005125D
:0A0564000420D005D004D003D0021B
:05056E0010990280FB62
:0305730075993A3D
:0505760010990280FB5A
:0E057B007599208A828B838CF0121738F582D6
:0E058900C002C003C004C0051203FFD005D09D
:0505970004D003D002B6
:05059C0010990280FB34
:0E05A10075992EC002C003C004C00512047B71
:0C05AF00AE82D005D004D003D0022002A0
:0405BB0003300348BE
:0B05BF0030020A8A828B838CF0EE125F
:0205CA00170B0D
:0505CC0010990280FB04
:0305D10075990811
:0505D40010990280FBFC
:0E05D9007599088A828B838CF0121738FEA366
:0E05E700AA82AB838E82C002C003C004C0058E
:0E05F5001203FFD005D004D003D0020D530531
:0406030007020511D4
:03060700020113DA
:09060A0090195075F0801202A94C
:0C0613003098FD1202E4C2988599822202
:08061F0085824685834785F0C2
:0506270048754900E5E3
:06062C0043454470067511
:050632004380E4F544E3
:070637007531007E007F0019
:0A063E00C3EE9543EF9544400122FE
:09064800EE2546FDEF3547FAAB43
:0C065100488D828A838BF0121738FA74EF
:07065D000F5EFB7C00706CD6
:0506640010990280FB6B
:04066900AC458C9977
:05066D0010990280FB62
:0806720075993ABC44028003B3
:03067A00BC491B5D
:0C067D00AC46EE2CF582C002C003C006A3
:0E068900C0071203FFD007D006D003D00280B6
:010697001F43
:0A069800AC46AD47EE2CF582EF3DB5
:0E06A200F583C002C003C006C007120420D0BA
:0706B00007D006D003D002C1
:0E06B70090197675F080C002C003C006C0071F
:0B06C5001202A9D007D006D003D0021B
:0E06D0008A82C002C003C006C0071203FFD01A
:0706DE0007D006D003D00293
:0506E50010990280FBEA
:0706EA00BB07047C2D800218
:0206F1007C206B
:0A06F3008C99EA24DF500DBA7F0055
:0A06FD005008EB2421F8A602800645
:06070700EB2421F8762E20
:0E070D00BB0F4890197A75F080C006C0071225
:09071B0002A990002175F04012C2
:0A07240002A9120113D007D0060548
:09072E00497417B54924C3EE9586
:0A07370043EF9544501BC006C007B5
:0D07410012060AAA82D007D006BA1B0122B8
:07074E00BA200415498003E5
:03075500754900E3
:050758000EBE00010FC0
:03075D0002063E53
:06076000C204C2057A008C
:03076600BA2000B6
:0C0769005063EA2421F88682C002C00020
:0D077500121724E582D000D002600BEA24A8
:0907820021F987035303DF80060F
:06078B00EA2421F98703B6
:0B079100A603EA2421F88682C00212B1
:0C079C0016E5E582D0026006EA2421F890
:0207A8007600D9
:0C07AA00EA2421F88603BB3D067600D24D
:0307B600048012AA
:0707B9008603BB2E02800342
:0307C000BB5F0814
:0807C300EA2421F87600D205BA
:0307CB000A809809
:0407CE007A007B0032
:0307D200BB200049
:0A07D500501FEA2421F8EB2421F95B
:0C07DF008704A604EC7008EB042421F849
:0307EB00E66005C0
:0507EE00E52160010A95
:0307F3000B80DC9C
:0307F600BA200026
:0B07F9005009EA2421F876000A80F283
:0108040022D1
:040805007A007B00FA
:0A080900E5412421F88604BC00023A
:02081300804122
:0E0815008C82C002C0031216BDE582D003D053
:0E08230002602C8A04EBC454F0CCC4CC6CCC24
:0A08310054F0CC6CFDE5412421F8E1
:0E083B008682C004C0051203DBAE82D005D059
:09084900047F00EE2CFAEF3DFBE8
:04085200054180B329
:0708560005418A828B832219
:03085D001202A9DB
:0508600010990280FB6D
:0908650075993D854A821203FFDA
:05086E0010990280FB5F
:0308730075992054
:0508760010990280FB57
:04087B007599202229
:08087F00120113901F88E0F53F
:080887004A90197E75F0801201
:07088F00085D901F8AE0F5EF
:080896004A90198175F08012EF
:07089E00085D901F90E0F5DA
:0808A5004A90198475F08012DD
:0708AD00085D901F8BE0F5D0
:0808B4004A90198775F08012CB
:0A08BC00085D901F8EE0FAA3E08AA9
:0808C6004A90198A75F08012B6
:0A08CE00085D901F8CE0FAA3E08A99
:0808D8004A90198E75F08012A0
:0708E000085D901F89E0F59F
:0808E7004A90199275F080128D
:0908EF00085D90199675F0801265
:0E08F80002A9901F91E0FAA3E0FB8A828B8395
:0709060012042012011390FE
:0C090D001F89E0C423541FFA5302037535
:0A0919002152752300EAC40354F8CC
:03092300FB7C005A
:03092600BC08000A
:0A092900502B74302CF522EB2C2427
:0A09330000F582E4341FF583E0F5BF
:0C093D004A90002175F040C002C003C0C9
:0D0949000412085DD004D003D0020C80D051
:0D09560090199A75F080C0021202A9D0021B
:0509630010990280FB69
:0809680074302AF59902011315
:0609700012042002011335
:08097600AA82AB83ACF07DFF07
:0E097E008A828B838CF0121738FE6063EE24A1
:0A098C008050578E050ABA00010BD7
:050996008A158B168C90
:04099B0017751400B8
:07099F008515828516838592
:0B09A60017F0121738FF24804017E5FF
:0A09B100142421F88606EFB5060CA9
:0709BB000515E4B515020566
:0109C200161E
:0409C300051480D8BF
:0509C700AA15AB16ACFF
:0509CC0017851582856E
:0609D10016838517F012E9
:0A09D7001738FE24805008E51424B0
:0509E10021F8E66007AB
:0709E6000ABA00940B809196
:0E09ED008A828B838CF012173860038D822271
:0409FB007582FF22E0
:0809FF00901F93E4F0C2069082
:090A07001F9FE0FA7003020AA12E
:0A0A1000901F9FE0FABA012C7A0053
:030A1A00BA04001B
:0A0A1D005025EA2A2480F582E43413
:0C0A27001FF583E0FBA3E0FC901F91E0B2
:0D0A3300FDA3E0FEEBB50506ECB50602D212
:010A400006AF
:030A41000A80D652
:0E0A4400901F9DE0FAA3E0FB901F91E0FCA341
:0C0A5200E0FDEAB50406EBB505028043A8
:080A5E00901F9FE0FABA0200AC
:090A66004015755C01E4F55D909A
:0E0A6F001F94E0FAA3E0FB8A828B8312116BC6
:0C0A7D0020982120061E901F9FE0FABA6E
:050A8900030312087FC9
:0E0A8E00901F91E0FAA3E0FB901F94EAF0A302
:050A9C00EBF012165DF5
:080AA100901F9FE0FABA020069
:0A0AA9004018209815755C01E4F573
:0C0AB3005D901F94E0FAA3E0FB8A828BA8
:040ABF008312116B22
:0A0AC300C29812087F755C01E4F58B
:0C0ACD005D901F91E0FAA3E0FB8A828B91
:040AD9008302116B18
:0A0ADD00901F93E0FABA0102801A9C
:0A0AE7009019A075F0801202A91208
:090AF100029D901F907407F012A1
:070AFA000293755500800313
:030B01001209FFD7
:0A0B040090194D75F0801202A975DA
:060B0E001420E4F515754A
:090B1400160090002175F040125A
:060B1D0004381203071268
:0A0B23000760901F9DE4F0A3F0901E
:080B2D001F9FE4F07541001266
:070B35000805120805858286
:050B3C004F85835012FB
:0E0B41000805AC82AD83C004C005120805850E
:0A0B4F008251858352D005D0047452
:060B5900F0554FF54B853D
:0A0B5F00504C740F2CFEE43DFF74AF
:070B6900F05EF54D8F4EAE6A
:0C0B70004F9018C175F080C004C005C093
:0E0B7C0006120976E582D006D005D004547F1B
:0A0B8A00F555E555FF24DB5003028A
:020B94000F163A
:0D0B9600EF240983C0E0EF242883C0E02293
:020BA300F0045C
:020BA500225AD2
:020BA700748F49
:020BA900C4DFA7
:020BAB00F40D47
:020BAD002865B9
:020BAF0065A23D
:020BB100A8AEEC
:020BB300EC3F15
:020BB5000E0E22
:020BB7000E0E20
:020BB9000E0E1E
:020BBB000E0E1C
:020BBD00385EA0
:020BBF00A5444B
:020BC1004444AA
:020BC300447C70
:020BC500FB1023
:010BC700ED40
:020BC8000B0C14
:020BCA000C0C11
:020BCC000C0C0F
:020BCE000C0C0D
:020BD0000C0D0A
:020BD2000D0D07
:020BD4000D0D05
:020BD6000D0D03
:020BD8000D0D01
:020BDA000E0EFD
:020BDC000E0EFB
:020BDE000E0EF9
:020BE0000E0EF7
:020BE2000D0DF7
:020BE4000E0EF3
:020BE6000E0EF1
:020BE8000E0EEF
:020BEA000E0FEC
:010BEC000BFD
:030BED00020B04F4
:060BF000E4F543F5447535
:090BF6004544901F0075F0001247
:050BFF00061F020B04BB
:0A0C0400747F554F7A002400FFEAC8
:0A0C0E00341FFA7B007542448F8208
:0A0C18008A838BF0120509020B0419
:0A0C2200747F554F7B002400FAEBAD
:0C0C2C00341FFB7F00C374809CE49D50CB
:090C380008755680E4F5578004AC
:040C41008C568D57E9
:040C4500855116853A
:030C4900561485B9
:090C4C0057158A828B838FF01288
:050C55000438020B044D
:0A0C5A007A807B007F40E4F543F54B
:0A0C6400447545498A828B838FF0A6
:060C6E0012061F020B0438
:0C0C7400747F554FFA4302807B007F40E4
:0C0C80007542498A828B838FF0120509AF
:030C8C00020B0454
:0C0C8F00747F554FFA4302807B007F40C9
:0C0C9B00C374809CE49D5008755680E4F2
:040CA700F557800479
:040CAB008C568D577F
:040CAF0085511685D0
:030CB3005614854F
:090CB60057158A828B838FF0121E
:050CBF000438020B04E3
:070CC400AA4BAB4C7F008539
:030CCB004D438511
:030CCE004E44751C
:0C0CD10045588A828B838FF012061F02A8
:020CDD000B0406
:070CDF00AA4FAB507F007526
:0C0CE60042588A828B838FF012050902AD
:020CF2000B04F1
:070CF400AA4FAB507F008501
:030CFB0051168C03
:0A0CFE00148D158A828B838FF0128B
:050D08000438020B0499
:070D0D00AA4BAB4C7F80856F
:030D14004D4385C7
:030D17004E4475D2
:0C0D1A0045438A828B838FF012061F0273
:020D26000B04BC
:050D28008C5C8D5D856F
:060D2D004F828550831285
:050D3300116B020B042E
:070D3800901F9FE02401F071
:0A0D3F00901F9FE02401F0E54F45EE
:060D4900507003020B04D0
:080D4F00901F9DE54FF0A3E5A4
:060D570050F0E4F54FF539
:010D5D005045
:070D5E00901F9FE02401F04B
:070D6500E54F4550B4010009
:0E0D6C00E433FA600A901F91E0FAA3E0FB80E6
:010D7A000474
:040D7B00AA4FAB5080
:0E0D7F00901F94EAF0A3EBF0901F93E4F07441
:080D8D000BB555047A01800248
:020D95007A00E2
:090D9700901F9CEAF012165D02A7
:020DA0000B0442
:060DA20012087F020B04A1
:060DA800120124020B04FD
:0C0DAE00300417901F8CEEF0A3E4F0AAB4
:0C0DBA00507B00901F8EEAF0A3EBF002CB
:020DC6000B041C
:0A0DC800901F8EE0FAA3E08A577531
:0C0DD2005600901F8CE0FFA3E0FAEF2514
:090DDE0056F582EA3557F583123F
:050DE7000970020B047D
:070DEC0030040D901F91E59A
:070DF3004FF0A3E550F002F0
:020DFA000B04E8
:0D0DFC00901F91E0FAA3E0FB8A828B831226
:050E09000970020B045A
:0C0E0E00901F89E0FA530218E5222A2404
:0A0E1A00D0FA30040FEA2400F5823C
:0A0E2400E4341FF583EEF0020B0426
:0A0E2E00EA2400F582E4341FF58386
:0A0E3800E0F5821203FF120113021D
:020E42000B049F
:0A0E4400E52324D0FA300416EA2A50
:0A0E4E00FB2480F582E4341FF583D5
:080E5800E54FF0A3E550F002A4
:020E60000B0481
:0A0E6200EA2A2480F582E4341FF52B
:0E0E6C0083E0FBA3E0FF8B828F8312097002EC
:020E7A000B0467
:030E7C00755300AB
:090E7F0074FC25535003020B041E
:050E8800E55325532491
:0A0E8D0080F582E4341FF583E0FFD6
:0C0E9700A3E0FB8F828B831209700553CF
:020EA30080DAF3
:050EA5007B808B5875F5
:060EAA005900755A407565
:060EB0001408E4F51575BD
:060EB6001600855882853C
:060EBC005983855AF01273
:0E0EC2000438E4F5A8F588F5C8F598F5F0F5C4
:0E0ED00081F5D0F58CF58AF58DF58BF589F559
:0E0EDE00CBF5CAF5CCF5CDF5B8900000F4F5D3
:0E0EEC0080F590F5A0F5B053B80C538770E474
:010EFA007384
:070EFB00751408E4F51575FC
:090F02001600901F8075F000122A
:050F0B000438020B0494
:060F1000120293020B0423
:0D0F16009017CB75F080C004C005C0061216
:0C0F23000976858254D006D005D00474F5
:060F2F00FFB55402801121
:0A0F350074F85554FF7407555490EA
:070F3F00194193F5548025D0
:0D0F460090175475F080C004C005C006125D
:0C0F53000976AF82D006D005D00430052E
:0C0F5F000B74075E90194193F5548C064A
:060F6B00BFFF030210822B
:050F7100E4BFD0010403
:0A0F7600FC6007901F89E0FA805923
:0A0F8000BFE007901F88E0FA804FE1
:0A0F8A00BFF007901F8AE0FA8045CF
:0A0F9400BFA807901F8BE0FA803B16
:0A0F9E00BF8107901F90E0FA803138
:0E0FA800BF820C901F8CE0FDA3E0FB8D028049
:010FB6002218
:0E0FB700BF830C901F8EE0FBA3E0FD8B028039
:010FC5001318
:0E0FC6008F82C004C006C00712025FAA82D04C
:050FD40007D006D00467
:090FD90074FFB554047401800199
:010FE200E42A
:0C0FE300FB700FEE6006E5544AFE80062D
:060FEF00E554F4FD5AFE7A
:0D0FF500BFB00A740355B0FD74FC5E4DFEE4
:0C10020030045BEC6008901F89EEF002E7
:02100E000B04D1
:0B101000BFE008901F88EEF0020B0408
:0B101B00BFF008901F8AEEF0020B04EB
:0B102600BFA808901F8BEEF0020B0427
:0B103100BF8108901F90EEF0020B043E
:0E103C00BF820B901F8CEEF0A3E4F0020B04B9
:0E104A00BF830B901F8EEEF0A3E4F0020B04A8
:081058008E8212028F020B04CC
:0A106000EB60078A821203FF801282
:05106A0010990280FB5B
:09106F00E5545A60047A31800254
:021078007A30CC
:02107A008A9951
:06107C00120113020B0437
:0A108200901A0175F0801202A90215
:02108C000B0453
:0E18C1008044814D448246448349844D4985CC
:0E18CF0046498658874D5888465889438A55A1
:0E18DD008B478C538D528E4C8F44505452903A
:0E18EB005043915492523093523194523295A0
:0E18F9005233965234975235985236995237E0
:0E1907009A54529B47429C5253549D42523078
:0E1915009E4252319F425232A0425233A142B2
:0D19230052A2425243A3504352A4A500001B
:0E193000303132333435363738394142434492
:03193E004546001B
:0819410001020408102040809F
:04194900082008006A
:03194D003E200039
:0E1950003C53706163653E3D6C696E65203CE2
:0E195E00456E7465723E3D70616765203C45C4
:0A196C0053433E3D73746F700D008D
:041976003A202000F3
:04197A002020200009
:03197E0041200005
:0319810042200001
:03198400535000BD
:03198700494500CF
:04198A00445048007D
:04198E0044504C0075
:041992005053570057
:0419960050433D007D
:06199A0042414E4B20000B
:0E19A0000A0A434D4F4E35312056312E320A81
:0E19AE00436F7079526967687420286329209E
:0E19BC00323030352C2032303036204A657300
:0E19CA0075732043616C76696E6F2D467261F5
:0E19D80067610A4368616E676564206279206A
:0E19E60054686961676F20536368696D756EA0
:0D19F40065636B20696E20323031320A00CD
:071A0100576861743F0A0001
:08108E00AA82AB5B055BEB24B9
:0C10960021F8EAC4540F90193093F6AB17
:0510A2005B055BEB247F
:0C10A70021F8740F5A90193093F68A82D9
:0310B3001203FF26
:0510B60010990280FB0F
:0410BB0075992022E1
:0610BF00AA82AB83ACF035
:0E10C5008A828B838CF0121738FD6016BD8076
:0110D300001C
:0810D4005011AE5B055BEE2438
:0B10DC0021F8A6050ABA00E10B80DE37
:0110E70022E6
:0A10E800AA82AB83AC5B055BEC242D
:0C10F20021F8EBC4540FFC53040F7D00E8
:0A10FE00EC2430F582ED3419F5837F
:09110800E493F6AC5B055BEC24FA
:0B11110021F88B0453040F7D00EC2438
:0A111C0030F582ED3419F583E493F9
:07112600F6AC5B055BEC2455
:0C112D0021F88A04EBC4CCC4540F6CCC35
:0C113900540FCC6CCC53040F7D00EC2450
:0A11450030F582ED3419F583E493D0
:07114F00F6AC5B055BEC242C
:0A11560021F853020F7B00EA243059
:0B116000F582EB3419F583E493F622CE
:0A116B00AA82AB837560008A668BD0
:0411750067E55C4589
:081179005D7006755C01E4F5F0
:011181005D10
:05118200AD5CAE5D153F
:071187005C74FFB55C02156A
:01118E005D03
:05118F00ED4E7001228D
:071194008566828567831266
:09119B000420901D2075F0801263
:0611A40002A985668285A8
:0C11AA006783E493FDF582C0051203FF8B
:0211B600D00562
:0511B80010990280FB0C
:0A11BD00759920755B017521097E0C
:0511C700007F007C0028
:0A11CC00EF2428F582EC341AF583B5
:0B11D600E493FA6011EDB50602800BF7
:0411E100BA0A010E37
:0711E5000FBF00E30C80E0E6
:0411EC008F028C03DF
:0A11F000EA2428F582EB341AF58397
:0D11FA00E493FCBC0A070ABA00EC0B80E984
:0C12070074075DF5F0743045F0F5687474
:0E121300015DF5F0743045F0FEE4BD9001047D
:05122100FD8A5E8B5FF9
:07122600E55E2428F582E5D6
:0A122D005F341AF583E493FFBF0A53
:04123700030215B5E4
:05123B00C207BF4100E5
:0E1240004029EF24A54024EF24BF25E0FA90BA
:0E124E001A0893CAA393FB7C808A828B838C40
:0D125C00F0C005C0061210BFD006D005027C
:0212690015AAC4
:05126B00BF2102807AA2
:05127000BF23028026EF
:05127500BF2502806EA0
:06127A00BF2603021485EB
:06128000BF2A0302156DF8
:06128600BF2E030214302C
:06128C00BF3A030214F654
:06129200BF3F0302158AB4
:031298000215A09C
:06129B00AA5B055BEA24DA
:0812A10021F876230566E4B58F
:0412A900660205676D
:0A12AD00856682856783E493F5826D
:0E12B700C005C00612108ED006D005ED7003E3
:0312C5000215AA65
:0712C8000566E4B5660205AE
:0112CF0067B7
:0A12D000856682856783E493F5824A
:0E12DA00C005C00612108ED006D0050215AA5F
:0212E800D2072B
:0612EA003007067ACB7B01
:0312F00017800460
:0412F3007A547B1797
:0512F7008A618B6275A5
:0612FC0063800566E4B505
:041302006602056713
:0A130600856682856783E493FF7A11
:0113100000DC
:08131100EF24804003021420C8
:0413190085616985FC
:03131D00626A857C
:02132000636BFD
:07132200856982856A83855D
:091329006BF0121738FB7003028F
:0213320013D0D6
:06133400EBB50702800387
:03133A000213BCDF
:0E133D008F82C002C005C006C0071203FFD099
:07134B0007D006D005D00217
:0513520010990280FB70
:0A1357007599200561E4B5610205F7
:011361006229
:0413620085616C85B0
:03136600626D8530
:02136900636EB1
:07136B00856C82856D83850E
:091372006EF0121738FBBB80007D
:08137B005014AC5B055BEC248F
:0813830021F8A603056CE4B596
:06138B006CDE056D80DA46
:04139100856C618581
:031395006D628501
:0A1398006E63C374808AF063F08076
:0A13A20095F0502AAB5B055BEB24CD
:0713AC0021F8762EAB5B0572
:0913B3005BEB2421F8A602801472
:0713BC000569E4B5690205B3
:0113C3006ABF
:0413C4008569618551
:0313C8006A6285D1
:0313CB006B63024F
:0213CE001322E8
:0713D00085618285628385BF
:0813D70063F0121738600302F5
:0213DF0015AA4D
:0E13E100C374808AF063F08095F050057407A5
:0313EF005A420758
:0513F200100702801944
:0E13F70074075FF5F0743045F0FA5307F8758F
:03140500615475BA
:03140800621775F3
:05140B006380021311D3
:0E1410008F82C005C00612108ED006D00502D5
:02141E0015AA0D
:0E1420008F82C005C00612108ED006D00502C5
:02142E0015AAFD
:09143000C0060566E4B56602057C
:01143900674B
:05143A00AA66AB678506
:0A143F006682856783E493FC339511
:0C144900E0FEEC2AFAEE3BFB74012AF5F1
:0614550064E43BF565852F
:0A145B006482856583C005C0061297
:0614650010E88566828597
:0C146B006783E493F5821203FFD006D0E3
:0314770005D00697
:05147A0010990280FB47
:06147F007599200215AA78
:0A148500C006856682856783E49344
:0A148F00C4035407FAAB66AC67749F
:0E149900022BE43CFB5303F8E4FCFEEA4203A2
:0A14A700EE42048B070566E4B5660B
:0314B100020567CA
:0A14B4008F028A037A0085668285A4
:0A14BE006783E4937E002AF564EED4
:0714C8003BF5658564828598
:0A14CF006583C005C0061210E88511
:0A14D9006682856783E493F58212B2
:0814E30003FFD006D005D0067E
:0514EB0010990280FBD6
:0614F0007599200215AA07
:0714F6000566E4B56602057E
:0114FD006787
:0A14FE00856682856783E493FAFB9C
:0A1508008B657564008A82C005C07F
:08151200061203FFD006D0050C
:05151A0010990280FBA6
:0A151F007599200566E4B566020523
:01152900675A
:0A152A00856682856783E493F582ED
:0B153400C005C0061203FFD006D00562
:05153F0010990280FB81
:0A154400759920856682856783E4AF
:09154E00937B002564F564EB3584
:0415570065F565854C
:0A155B006482856583C005C0061296
:0815650010E8D006D005803D1E
:0E156D00901D2375F080C005C0061210BFD07F
:09157B0006D005AA5B055BEA2419
:0615840021F8A6068020FC
:06158A00AA5B055BEA24E8
:0715900021F87672AA5B0549
:061597005BEA2421F8A626
:03159D0068800A59
:0615A000AA5B055BEA24D2
:0415A60021F8A6077B
:0715AA00055EE4B55E0205D9
:0115B1005FDA
:0315B200021226FC
:0615B500AA5B055BEA24BD
:0715BB0021F8760AAA5B0586
:0815C2005BEA2421F876009099
:0915CA00002175F0401202A90590
:0615D30066E4B5660205A6
:0115D90067AA
:0915DA0005607417B5600280037E
:0315E30002118270
:0915E60012060AAF82BF1B0122AC
:0815EF00BF2005156002118206
:0615F70075600002118284
:021A0800261D99
:021A0A002B1D92
:021A0C00301D8B
:021A0E00351D84
:021A10003C1D7B
:021A1200431D72
:021A14004B1D68
:021A1600521D5F
:021A1800581D57
:021A1A005F1D4E
:021A1C00661D45
:021A1E006E1D3B
:021A2000741D33
:021A22007B1D2A
:021A2400811D22
:021A2600871D1A
:0E1A28006E6F700A48260A6C6A6D70093A0AE1
:0E1A3600727209610A42610A42210A0A422ABA
:0E1A44000A0A0A0A0A0A0A0A423F0A6A62638A
:0E1A520009252C2E0A44260A6C63616C6C096F
:0E1A60003A0A72726320610A43610A43210A46
:0E1A6E000A432A0A0A0A0A0A0A0A0A433F0A17
:0E1A7C006A6209252C2E0A48260A7265740A31
:0E1A8A00726C09610A45230A45210A0A452AA1
:0E1A98000A0A0A0A0A0A0A0A453F0A6A6E6228
:0E1AA60009252C2E0A44260A726574690A72FC
:0E1AB4006C6309610A46230A46210A0A462A83
:0E1AC2000A0A0A0A0A0A0A0A463F0A6A630961
:0E1AD0002E0A48260A6F726C09212C610A6FDB
:0E1ADE00726C09212C230A47230A47210A0AA9
:0E1AEC00472A0A0A0A0A0A0A0A0A473F0A6A31
:0E1AFA006E63092E0A44260A616E6C09212CC7
:0E1B0800610A616E6C09212C230A49230A49E7
:0E1B1600210A0A492A0A0A0A0A0A0A0A0A4980
:0E1B24003F0A6A7A092E0A48260A78726C096E
:0E1B3200212C610A78726C09212C230A4A23A7
:0E1B40000A4A210A0A4A2A0A0A0A0A0A0A0A54
:0E1B4E000A4A3F0A6A6E7A092E0A44260A6F76
:0E1B5C00726C09632C250A6A6D700940612BBA
:0E1B6A00500A41612C230A41212C230A0A4112
:0E1B78002A2C230A0A0A0A0A0A0A0A413F2CEA
:0E1B8600230A736A6D70092E0A48260A616EE2
:0E1B94006C20632C250A6D6F766309612C406E
:0E1BA200612B70630A6469760961620A412151
:0E1BB0002C210A0A41212C2A0A0A0A0A0A0AD2
:0E1BBE000A0A41212C3F0A41502C230A4426DA
:0E1BCC000A41252C630A6D6F766309612C4077
:0E1BDA00612B500A4B230A4B2E0A0A4B2A0A93
:0E1BE8000A0A0A0A0A0A0A4B3F0A6F726C09BF
:0E1BF600632C2F2E0A48260A41632C250A4232
:0E1C0400500A6D756C0961620A6462096135EF
:0E1C12000A0A412A2C210A0A0A0A0A0A0A0AA8
:0E1C2000413F2C210A616E6C09632C2F2E0AA5
:0E1C2E0044260A63706C09250A63706C096312
:0E1C3C000A4C612C23202E0A4C612C21202EF4
:0E1C4A000A0A4C2A2C23202E0A0A0A0A0A0A29
:0E1C58000A0A4C3F2C23202E0A70757368096F
:0E1C6600210A48260A636C7209250A636C7213
:0E1C740009630A7377617009610A4D210A0A3B
:0E1C82004D2A0A0A0A0A0A0A0A0A4D3F0A7087
:0E1C90006F7009210A44260A736574620925E3
:0E1C9E000A7365746209630A64612F74610A37
:0E1CAC004E21202E0A0A7863686409612C2AF2
:0E1CBA000A0A0A0A0A0A0A0A4E3F2C2E0A4F8C
:0E1CC800612C40500A48260A0A4F612C2A0A55
:0E1CD600636C7209610A41612C210A0A4161A6
:0E1CE4002C2A0A0A0A0A0A0A0A0A41612C3F3F
:0E1CF2000A4F40502C610A44260A0A4F2A2C41
:0E1D0000610A63706C09610A41212C610A0AB4
:0E1D0E00412A2C610A0A0A0A0A0A0A0A413FFF
:041D1C002C610A002C
:031D20003A200066
:031D23004072000B
:051D26006D6F7609005D
:051D2B00696E63090070
:051D3000646563090079
:071D35006163616C6C0900A1
:071D3C0061646409612C00E1
:081D43006164646309612C0076
:071D4B006F726C09612C00AE
:061D5200616A6D700900DA
:071D5800616E6C09612C00B3
:071D5F0078726C09612C0091
:081D66007375626209612C0033
:061D6E00636A6E650900C6
:071D740078636809612C008F
:061D7B00646A6E7A0900A3
:061D81006D6F7678090089
:051D870064707472009D
:0D15FD00C2ABC0A8C2AFC2ACC083C0829018
:0A160A001F88F0901F89E5D0F090D2
:0C1614001F8AE5F0F0901F8CD0E0F090F1
:0C1620001F8ED0E0F0901F8BD0E0F09007
:0C162C001F92D0E0F0901F91D0E0F090F1
:0E1638001F90E581F0901F0075D000E8F0785B
:0116460001A2
:0E164700A3E6F008B880F9901F937401F075C7
:06165500816E1200EA02A2
:02165B00007D10
:05165D00787F901F7F63
:0E166200E0F61582D8FAE0F6901F8BE0F5A8AE
:0D167000901F8AE0F5F0901F89E0F5D09002
:0E167D001F90E0F581901F94E0C0E0A3E0C054
:0E168B00E0901F8CE0C0E0901F8EE0C0E09069
:0E1699001F9CE0600DD2AFD2AC901F88E0D055
:0416A70083D0823238
:0E16AB00901F88E0D083D0821202A6D2AFD268
:0416B9008AD2AB32F4
:0516BD00AA82BA300012
:0716C2004005EA24C65014A4
:0316C900BA610003
:0716CC004005EA2499500AD1
:0316D300BA410019
:0716D6004009EA24B94004B9
:0416DD0075820122EF
:0416E10075820022EC
:0716E500AA82BA200280175F
:0516EC00BA0C0280129F
:0516F100BA0A02800DA1
:0516F600BA0D0280089E
:0516FB00BA09028003A2
:03170000BA0B041D
:0417030075820122C8
:0417070075820022C5
:0600B100E478FFF6D8FD23
:08008F007900E94400601B7ACE
:0500970000901D8C78B3
:03009C00C175A08B
:0A009F001FE493F2A308B800020565
:0800A900A0D9F4DAF275A0FF02
:0E170B0020F71030F6118883A88220F507F62B
:05171900A883758300A8
:01171E0022A8
:03171F00F280F75E
:02172200F022B3
:0800B7007800E84400600A79BA
:0300BF000075A029
:0600C2001FE4F309D8FC65
:0800C80078C1E84400600C79E6
:0B00D00001901F00E4F0A3D8FCD9FA57
:05172400AA82BA610079
:0B1729004009EA24854004758201227B
:041734007582002298
:0300820075816E17
:0A0085001200EAE582600302007D2C
:0E17380020F71430F6148883A88220F507E607
:06174600A8837583002258
:03174C00E280F741
:03174F00E49322FE
:02175200E02293
:00000001FF
