:06D8000002D80602EEC58D
:10D85F0002D86212D86780FE02E3D32275A800C2F5
:10D86F008E740F55894420F589438780758DFFD2BB
:10D87F008E759852758E10538EDF75820022109818
:10D88F000280FB8599822210990280FB75990A10FC
:10D89F00990280FB75990D22AA82AB83C3EA94008B
:10D8AF00EB94D84001227902E55775A22012FFF0C0
:10D8BF0075A20022AA82AB83790175A2017582003D
:10D8CF0075830075A2008B8375A22012FFF075A2DD
:10D8DF0000BA0039BB003675570290000012D8A766
:10D8EF007557D890000112D8A775570090000212F3
:10D8FF00D8A775570290001B12D8A77557D890005C
:10D90F001C12D8A775570390001D02D8A7227909BA
:10D91F00C082C08375A201D083D08275A2008557C3
:10D92F0082855883E55975A22012FFF075A2002257
:10D93F00900696E4F0900699F090F28775F08012B9
:10D94F00DB5B90000012D8C390200012D8C3904028
:10D95F000012D8C390800012D8C390F29275F08055
:10D96F0012DB5BC200C20112D88DAA82BA1B03025E
:10D97F00DA94BA3AF212DD1285820812DD12AC8205
:10D98F008C0A750B00E50AFE2508F509850A0B754B
:10D99F000A0012DD12E582FA2509F5098A077800D7
:10D9AF00EF250AF50AE8350BF50B12DD12E582FFBC
:10D9BF002509F509E4BF000104FF7800C3E89508C5
:10D9CF00400302DA58C007C00012DD12AA82D0004D
:10D9DF00D007EA2509F509EF606B88017B00E9257F
:10D9EF000AF9EB350BFBC3740299E49B501EC3E994
:10D9FF00941BEB94004007741D99E49B500EE82490
:10DA0F0000F582E43406F583EAF0803989828B834E
:10DA1F00E82400FEE43406FCE493FD8E828C83F050
:10DA2F00C3E99403EB9400500EE92496F582EB348E
:10DA3F0006F583EAF0800EE924E52499F582E434B3
:10DA4F0006F583EAF00802D9CBC00712DD12AA82CD
:10DA5F00D007EA2509F509EF602BE509600DD20023
:10DA6F0010990280FB75995802D976900600850AA5
:10DA7F0057850B5885085912D91D10990280FB75CF
:10DA8F00992E02D97630000B90F2A775F08012DB39
:10DA9F005B801730010B90F2B975F08012DB5B8061
:10DAAF000990F2C875F08012DB5B30980312D88DA5
:10DABF00900696E0FABA021B900698E0F55790D7B9
:10DACF00FE12D8A7900697E0F55790D7FF12D8A768
:10DADF0012DB39900699E0FABA0202800990F2D06F
:10DAEF0075F08012DB5B755780E4F558755900901F
:10DAFF00060075F00002DCEC75A800E582C0E07945
:10DB0F000290DB2D75A22012FFF075A200D0E079F4
:10DB1F000290DB3675A22012FFF075A20085FF82FE
:10DB2F0022758200228582FF222290D7FEE493FA8B
:10DB3F00740193FB900691EAF0A3EBF02290F2EDC3
:0CDB4F0075F08002DB5BD2BB43B7802284
:0300000002D80023
:03001B0002D80305
:02D7FE00000029
:10F016008050308153508244504C8344504887502E
:10F02600434F4E8854434F4E89544D4F448A544C57
:10F03600308B544C318C5448308D5448319050317B
:10F046009853434F4E9953425546A05032A84945CE
:10F05600B05033B84950C85432434F4EC954324D5C
:10F066004F44CA52434150324CCB5243415032482E
:10F07600CC544C32CD544832D0505357E0414343E0
:10F08600E041F042A241555852318E4155585297AF
:10F09600434B524C8F434B434B4F4E308F434B4366
:10F0A6004B4F4E31FA434341503048FB43434150A6
:10F0B6003148FC434341503248FD434341503348B5
:10F0C600FE434341503448EA43434150304CEB43FE
:10F0D600434150314CEC43434150324CED434341A4
:10F0E60050334CEE43434150344CDA434341504D88
:10F0F60030DB434341504D31DC434341504D32DD1B
:10F10600434341504D33DE434341504D34D843438E
:10F116004F4EF94348E9434CD9434D4F44A849451E
:10F126004E30B149454E31B849504C30B749503050
:10F1360048B249504C31B349504831C05034D85088
:10F1460035A6574454525354A7574454505247A9CE
:10F156005341444452B9534144454EC35350434F1F
:10F166004EC45350535441C55350444154C954326C
:10F176004D4F449B424452434F4E9A42524C9C4BF5
:10F18600424C539D4B42459E4B4246D24545434FCA
:10F196004E80000088495430894945308A495431A7
:10F1A6008B4945318C5452308D5446308E545231F1
:10F1B6008F5446319852499954499A5242389B5431
:10F1C60042389C52454EA8455830A9455430AA4568
:10F1D6005831AB455431AC4553AF4541BC5053D083
:10F1E60050D14631D24F56D3525330D4525331D5E3
:10F1F6004630D64143D74359C843505F524C32C973
:10F20600435F5432CA545232CB4558454E32CC54E1
:10F21600434C4BCD52434C4BCE45584632CF5446C9
:10F2260032AD455432DF4346DE4352AE4543EB45ED
:10F23600424FBE505043FB50424FDF4346DE4352DF
:10F24600DC43434634DB43434633DA43434632D951
:10F2560043434631D843434630AE4543BE50504300
:10F266004CBD5054324CBC504C53BB5054314CBA2C
:10F276005058314CB95054304CB85058304C880026
:10F286000045726173696E672E2E2E000A53656EF5
:10F29600642066696C65206F72203C4573633E0A84
:10F2A600000A436865636B73756D206572726F72D1
:10F2B600210A000A466C617368206572726F7221BA
:10F2C6000A000A446F6E652E0A005741524E494E97
:10F2D600473A206D697373696E672054696D65726C
:10F2E60031206A6D700A00506F72743A20415438AA
:10F2F600394335315244322F4544322056312E316E
:02F306000A00FB
:10DB5B00AA82AB83ACF08A828B838CF012EFFAFD36
:10DB6B0024FF5028BD8000502310990280FB8A822D
:10DB7B008B838CF012EFFAFD8D99BD0A0810990278
:10DB8B0080FB75990D0ABA00CD0B80CA2210990241
:10DB9B0080FB75990D7A00BA4F00500B10990280DB
:10DBAB00FB7599200A80F010990280FB75990D2264
:10DBBB007A00C00212D88DAB82D002BB0802801251
:10DBCB00BB0A028028BB0D028023BB1602805002C9
:10DBDB00DC68EA60DD90F38C75F080C00212DB5BD1
:10DBEB00D0028A041AEC2421F8760080C5C00212F8
:10DBFB00D896D002EA2421F87600EA60219006C07C
:10DC0B00EAF07C00C3EA9C4015EC24A0F582E434D6
:10DC1B0006F583EC2421F88605EDF00C80E6221244
:10DC2B00DB989006C0E0FA90F39075F080C002127A
:10DC3B00DB5BD0027C00C3EA9C500302DBBDEC240F
:10DC4B0021F8EC24A0F582E43406F583E0FDF61010
:10DC5B00990280FBEC2421F886990C80D9BA1F001D
:10DC6B0050138A040AEC2421F8A60310990280FBB6
:10DC7B008B9902DBBD10990280FB75990702DBBD06
:10DC8B00AA82C00212EFE6E582D002600674DF5A68
:10DC9B00FB80028A03EB24D0FA24F65004EA24F921
:10DCAB00FA8A8222AA8210990280FBEAC4540FFBE3
:10DCBB0090F37393F59910990280FB740F5A90F3BC
:10DCCB007393F59922AA82AB838B047D008C82C05F
:10DCDB0002C00312DCAFD003D0027B008A8202DCCD
:10DCEB00AFAA82AB83ACF0AD57AE58ED4E60178A3E
:10DCFB00828B838CF0E55912EFCDA3AA82AB831DE7
:10DD0B00BDFFE81E80E52212D88D12DC8BE582FA6E
:10DD1B00C454F0FAC00212D88DD002C00212DC8BB0
:10DD2B00AB82D002EB2AF582227A007B007C00BC0E
:10DD3B000200400302DDBBC002C003C00412D88D39
:10DD4B00AD82D004D003D00210990280FBE4BD2039
:10DD5B000104FE60047F7880028D078F998D82C04D
:10DD6B0002C003C004C005C00612EF7FE582D006D7
:10DD7B00D005D004D003D0027019C202EE600FD2CE
:10DD8B0003BB000C10990280FB7599788002C203CB
:10DD9B008A8222EAC454F0FE8D82C004C00612DCD3
:10DDAB008BAD82D006D004ED2EFA0C8C0302DD3A3B
:10DDBB00D203D2028A8222AA82AB83ACF07D00BD51
:10DDCB000062C002C003C004C00512D896D005D0B3
:10DDDB0004D003D00210990280FBAE428E991099A9
:10DDEB000280FB75993ABE44028003BE49178A82B2
:10DDFB00C002C003C004C00512DCAFD005D004D0F4
:10DE0B0003D00280178A828B83C002C003C004C078
:10DE1B000512DCD0D005D004D003D00210990280BB
:10DE2B00FB75993A10990280FB7599208A828B8336
:10DE3B008CF012EFFAFEF582C002C003C004C005DD
:10DE4B0012DCAFD005D004D003D00210990280FBB6
:10DE5B0075992EC002C003C004C00512DD34AE821A
:10DE6B00D005D004D003D002200203300348300287
:10DE7B000A8A828B838CF0EE12EFCD10990280FB15
:10DE8B0075990810990280FB7599088A828B838C8F
:10DE9B00F012EFFAFEA3AA82AB838E82C002C003FC
:10DEAB00C004C00512DCAFD005D004D003D0020DE6
:10DEBB0053050702DDCA02D89690F39375F08012D2
:10DECB00DB5B3098FD12DB98C298859982228582A4
:10DEDB004685834785F048754900E5437004E54462
:10DEEB0060028006754380E4F5447531007E007F47
:10DEFB0000C3EE9543EF9544400122EE2546FDEF1E
:10DF0B003547FAAB488D828A838BF012EFFAFA749D
:10DF1B000F5EFB7C00BB0002800302DF95109902B1
:10DF2B0080FBAC458C9910990280FB75993ABC44E7
:10DF3B00028003BC491CAC46EEFD2CF582C002C02E
:10DF4B0003C006C00712DCAFD007D006D003D00247
:10DF5B00801FAC46AD47EE2CF582EF3DF583C0023A
:10DF6B00C003C006C00712DCD0D007D006D003D048
:10DF7B000290F3B975F080C002C003C006C007124F
:10DF8B00DB5BD007D006D003D0028A82C002C0036D
:10DF9B00C006C00712DCAFD007D006D003D00210EA
:10DFAB00990280FBBB07047C2D80027C208C99EAB4
:10DFBB0024DF500DBA7F005008EB2421F8A6028015
:10DFCB0006EB2421F8762EBB0F5890F3BD75F0802D
:10DFDB00C006C00712DB5BD007D00690002175F09E
:10DFEB0040C006C00712DB5BD007D006C006C007D7
:10DFFB0012D896D007D0060549E549B41724C3EECD
:10E00B009543EF9544501BC006C00712DEC4AA828D
:10E01B00D007D006BA1B0122BA200415498003751C
:10E02B0049000EBE00010F02DEFCC204C2057A00DD
:10E03B00BA20005063EA2421F88682C002C0001285
:10E04B00EFE6E582D000D002600BEA2421F98703CA
:10E05B005303DF8006EA2421F98703A603EA242170
:10E06B00F88682C00212EFA7E582D0026006EA248E
:10E07B0021F87600EA2421F88603BB3D067600D210
:10E08B000480128603BB2E028003BB5F08EA2421A7
:10E09B00F87600D2050A80987A007B00BB200050EE
:10E0AB0024EA2421F8EB2421F98704A604BC000DF3
:10E0BB0074012B2421F88604BC00028005E5216045
:10E0CB00010A0B80D7BA20005009EA2421F8760008
:10E0DB000A80F2227A007B00E5412421F88604BCF9
:10E0EB00000280418C82C002C00312EF7FE582D018
:10E0FB0003D002602C8A04EBC454F0CCC4CC6CCC9F
:10E10B0054F0CC6CFDE5412421F88682C004C00597
:10E11B0012DC8BAE82D005D0047F00EE2CFAEF3DE3
:10E12B00FB054180B305418A828B8322AA82AB8394
:10E13B00ACF012DB5B10990280FB75993D854A822E
:10E14B0012DCAF10990280FB75992010990280FBAD
:10E15B007599202212D896900688E0F54A90F3C163
:10E16B0075F08012E13790068AE0F54A90F3C4759A
:10E17B00F08012E137900690E0F54A90F3C775F006
:10E18B008012E13790068BE0F54A90F3CA75F08068
:10E19B0012E13790068EE0FAA3E0FB8A4A90F3CDAA
:10E1AB0075F08012E13790068CE0FAA3E0FB8A4A07
:10E1BB0090F3D175F08012E137900689E0F54A9023
:10E1CB00F3D575F08012E13790F3D975F08012DB3F
:10E1DB005B900691E0FAA3E0FB8A828B8312DCD082
:10E1EB0012D896900689E0FAC423541FFA530203FF
:10E1FB00752152752300EAC40354F8FB7C00BC085C
:10E20B0000502B74302CF522EB2C2400F582E434D7
:10E21B0006F583E0F54A90002175F040C002C0037B
:10E22B00C00412E137D004D003D0020C80D090F39D
:10E23B00DD75F080C00212DB5BD00210990280FB0F
:10E24B0074302AF59902D896AA82AB8312DCD002DD
:10E25B00D896AA82AB83ACF07DFF8A828B838CF03D
:10E26B0012EFFAFE6067EE2480505B8E050ABA004F
:10E27B00010B8A588B598C5A7557008558828559D2
:10E28B0083855AF012EFFAFF24804017E5572421BB
:10E29B00F88606EFB5060C0558E4B5580205590586
:10E2AB005780D8AA58AB59AC5A8558828559838563
:10E2BB005AF012EFFAFE2480500CE5572421F88611
:10E2CB0006BE000280070ABA00900B808D8A828BF3
:10E2DB00838CF012EFFA60038D82227582FF2290FD
:10E2EB000693E4F0C20690069FE0FA700302E392F5
:10E2FB0090069FE0FABA012D7A00BA04005026EA84
:10E30B002AFB2480F582E43406F583E0FBA3E0FCD2
:10E31B00900691E0FDA3E0FEEBB50506ECB5060219
:10E32B00D2060A80D590069DE0FAA3E0FB900691F9
:10E33B00E0FCA3E0FDEAB50406EBB50502804890CE
:10E34B00069FE0FABA02004015750D01E4F50E9038
:10E35B000694E0FAA3E0FB8A828B8312EA192098D9
:10E36B0026A206B3E433FA601E90069FE0FABA03C6
:10E37B000312E15F900691E0FAA3E0FB900694EAAA
:10E38B00F0A3EBF012EF2390069FE0FABA020040E5
:10E39B001DA298B3E433FA6015750D01E4F50E90E8
:10E3AB000694E0FAA3E0FB8A828B8312EA19C298E7
:10E3BB0012E15F750D01E4F50E900691E0FAA3E012
:10E3CB00FB8A828B8302EA19900693E0FABA010268
:10E3DB00801A90F3E375F08012DB5B12DB4C900636
:10E3EB00907407F012DB39755400800312E2EA9047
:10E3FB00F39075F08012DB5B755720E4F558755977
:10E40B000090002175F04012DCEC12DBBB12E03502
:10E41B0090069DE4F0A3F090069FE4F07541001286
:10E42B00E0DF12E0DF85824F85835012E0DFAC82A4
:10E43B00AD83C004C00512E0DF858251858352D0C5
:10E44B0005D00474F0554FF54B85504C740F2CFED2
:10E45B00E43DFF74F05EF54D8F4EAE4F90F30875B3
:10E46B00F080C004C005C00612E25DE582D006D084
:10E47B0005D004547FF554E554FF24DC500302E728
:10E48B00B9EF240983C0E0EF242783C0E022E4F82E
:10E49B0017506A87BED9EE072261619CA2A8E339A7
:10E4AB000505050505050505325A3C3C3C3C759EAA
:10E4BB00B3E1E4E4E5E5E5E5E5E5E5E6E6E6E6E634
:10E4CB00E6E6E6E6E7E7E7E7E7E7E7E7E6E6E7E7D7
:10E4DB00E7E7E7E7E7E402E3FAE4F543F5447545DC
:10E4EB004490060075F00012DED902E3FA747F55F2
:10E4FB004FFF7A002400FFEA3406FA7B0075424492
:10E50B008F828A838BF012DDC202E3FA747F554F40
:10E51B00FA7B002400FAEB3406FB7F00C374809C6B
:10E52B00E49D5008755580E4F55680048C558D5646
:10E53B008551598555578556588A828B838FF01292
:10E54B00DCEC02E3FA7A807B007F40E4F543F54490
:10E55B007545498A828B838FF012DED902E3FA74F8
:10E56B007F554FFA7B004302807B007F4075424909
:10E57B008A828B838FF012DDC202E3FA747F554FD0
:10E58B00FA7B004302807B007F40C374809CE49D38
:10E59B005008755580E4F55680048C558D56855181
:10E5AB00598555578556588A828B838FF012DCEC30
:10E5BB0002E3FAAA4BAB4C7F00854D43854E447565
:10E5CB0045588A828B838FF012DED902E3FAAA4F69
:10E5DB00AB507F007542588A828B838FF012DDC25D
:10E5EB0002E3FAAA4FAB507F008551598C578D58D7
:10E5FB008A828B838FF012DCEC02E3FAAA4BAB4CD2
:10E60B007F80854D43854E447545438A828B838F2E
:10E61B00F012DED902E3FA8C0D8D0E854F828550F8
:10E62B008312EA1902E3FA90069FE02401F09006A8
:10E63B009FE02401F0E54F7007E550700302E3FA09
:10E64B0090069DE54FF0A3E550F0E4F54FF55090A3
:10E65B00069FE02401F0E54F7004E5506002800A4C
:10E66B00900691E0FAA3E0FB8004AA4FAB50900612
:10E67B0094EAF0A3EBF0900693E4F0E554B40B04AA
:10E68B007A0180027A0090069CEAF012EF2302E3F3
:10E69B00FA12E15F02E3FA12D93F02E3FA300417F0
:10E6AB0090068CEEF0A3E4F0AA507B0090068EEA65
:10E6BB00F0A3EBF002E3FA90068EE0FAA3E08A03F4
:10E6CB007C0090068CE0FFA3E0FAEF2CF582EA3B8E
:10E6DB00F58312E25302E3FA30040D900691E54FF5
:10E6EB00F0A3E550F002E3FA900691E0FAA3E0FB09
:10E6FB008A828B8312E25302E3FA900689E0FA5383
:10E70B000218E5222A24D0FA30040FEA2400F582FD
:10E71B00E43406F583EEF002E3FAEA2400F582E432
:10E72B003406F583E0FBF58212DCAF12D89602E3D8
:10E73B00FAE52324D0FA300416EA2AFB2480F5826A
:10E74B00E43406F583E54FF0A3E550F002E3FAEA73
:10E75B002AFB2480F582E43406F583E0FBA3E0FF7B
:10E76B008B828F8312E25302E3FA7A00BA040040E1
:10E77B000302E3FAEA2AFF2480F582E43406F583E8
:10E78B00E0FFA3E0FB8F828B83C00212E253D00227
:10E79B000A80D9755708E4F55875590090068075AD
:10E7AB00F00012DCEC02E3FA12DB3902E3FA90F12F
:10E7BB009A75F080C004C005C00612E25D858253D5
:10E7CB00D006D005D004E553B4FF02801174F85580
:10E7DB0053FF7407555390F38493F553802590F0B2
:10E7EB001675F080C004C005C00612E25DAF82D082
:10E7FB0006D005D00430050B74075E90F38493F5B7
:10E80B00538C06BFFF0302E925E4BFD00104FC6073
:10E81B0007900689E0FA8059BFE007900688E0FA76
:10E82B00804FBFF00790068AE0FA8045BFA807909B
:10E83B00068BE0FA803BBF8107900690E0FA8031AF
:10E84B00BF820C90068CE0FDA3E0FB8D028022BF03
:10E85B00830C90068EE0FBA3E0FD8B0280138F826E
:10E86B00C004C006C00712DB07AA82D007D006D0AF
:10E87B0004E553B4FF0474018001E4FB700FEE60F8
:10E88B0006E5534AFE8006E553F4FD5AFEBFB00A77
:10E89B00740355B0FD74FC5E4DFE30045BEC6008F8
:10E8AB00900689EEF002E3FABFE008900688EEF0DE
:10E8BB0002E3FABFF00890068AEEF002E3FABFA873
:10E8CB000890068BEEF002E3FABF8108900690EEFB
:10E8DB00F002E3FABF820B90068CEEF0A3E4F00299
:10E8EB00E3FABF830B90068EEEF0A3E4F002E3FA9B
:10E8FB008E8212DB3402E3FAEB60078A8212DCAF02
:10E90B00801210990280FBE5535A60047A31800221
:10E91B007A308A9912D89602E3FA90F41F75F08038
:06E92B0012DB5B02E3FABF
:10F308008044814D448246448349844D4985464919
:10F318008658874D5888465889438A558B478C5359
:10F328008D528E4C8F445054529050439154925267
:10F338003093523194523295523396523497523513
:10F348009852369952379A54529B47429C425230AF
:10F358009D4252319E4252329F425233A04252A1A4
:10F36800425243A2504352A3A400003031323334F6
:10F3780035363738394142434445460001020408CE
:10F3880010204080082008003E20003C5370616334
:10F39800653E3D6C696E65203C456E7465723E3D08
:10F3A80070616765203C4553433E3D73746F700D33
:10F3B800003A202000202020004120004220005355
:10F3C80050004945004450480044504C00505357A1
:10F3D8000050433D0042414E4B20000A0A434D4F26
:10F3E8004E35312056312E320A436F707952696793
:10F3F80068742028632920323030352C2032303090
:10F4080036204A657375732043616C76696E6F2D7B
:0EF4180046726167610A00576861743F0A001E
:10E93100AA82AB0C050CEB2421F8EAC4540F90F326
:10E941007393FBF6AB0C050CEB2421F8740F5A9072
:10E95100F37393FBF68A8212DCAF10990280FB7588
:10E96100992022AA82AB83ACF08A828B838CF0122D
:10E97100EFFAFD6016BD80005011AE0C050CEE24BF
:10E9810021F8A6050ABA00E10B80DE22AA82AB8338
:10E99100AC0C050CEC2421F8EBC4540FFC7D0053A6
:10E9A100040F7D00EC2473F582ED34F3F583E493D9
:10E9B100FCF6AC0C050CEC2421F88B047D0053040F
:10E9C1000F7D00EC2473F582ED34F3F583E493FCC1
:10E9D100F6AC0C050CEC2421F88A04EBC4CCC4542D
:10E9E1000F6CCC540FCC6CCCFD53040F7D00EC2488
:10E9F10073F582ED34F3F583E493FCF6AC0C050C6E
:10EA0100EC2421F853020F7B00EA2473F582EB34E6
:10EA1100F3F583E493FAF622AA82AB837511008A97
:10EA2100178B18E50D7004E50E60028006750D0167
:10EA3100E4F50EAD0DAE0E150D74FFB50D02150EFC
:10EA4100ED4E70012285178285188312DCD090F774
:10EA51003E75F08012DB5B851782851883E493FD98
:10EA6100F582C00512DCAFD00510990280FB7599C3
:10EA710020750C017521097E007F007C00EF244682
:10EA8100F582EC34F4F583E493FA6011EDB50602F6
:10EA9100800BBA0A010E0FBF00E30C80E08F028CDD
:10EAA10003EA2446F582EB34F4F583E493FCBC0AD3
:10EAB100070ABA00EC0B80E974075D4430F519745C
:10EAC100015D4430FEE4BD900104FD8A0F8B10E529
:10EAD1000F2446F582E51034F4F583E493FFBF0A71
:10EAE1000302EE7DC207BF4100402AEF24A5402565
:10EAF100EF24BFFA25E090F42693FA740193FB7C8E
:10EB0100808A828B838CF0C005C00612E964D0062E
:10EB1100D00502EE72BF2102807CBF23028026BF96
:10EB210025028070BF260302ED38BF2A0302EE35AD
:10EB3100BF2E0302ECDABF3A0302EDB9BF3F030275
:10EB4100EE5202EE68AA0C050CEA2421F8762305A0
:10EB510017E4B517020518851782851883E493FA1F
:10EB6100F582C005C00612E931D006D005ED70036B
:10EB710002EE720517E4B51702051885178285188C
:10EB810083E493FAF582C005C00612E931D006D0BC
:10EB91000502EE72D2073007067A9A7BF180047A79
:10EBA100167BF08A128B137514800517E4B51702D2
:10EBB1000518851782851883E493FF7A00EF248076
:10EBC100400302ECCA85121A85131B85141C851A91
:10EBD10082851B83851CF012EFFAFB700302EC7D2A
:10EBE100EBB50702800302EC698F82C002C005C049
:10EBF10006C00712DCAFD007D006D005D0021099AD
:10EC01000280FB7599200512E4B5120205138512E5
:10EC11001D85131E85141F851D82851E83851FF08A
:10EC210012EFFAFBBB80005014AC0C050CEC242154
:10EC3100F8A603051DE4B51DDE051E80DA851D124B
:10EC4100851E13851F14C374808AF063F08095F0CC
:10EC5100502AAB0C050CEB2421F8762EAB0C050CDD
:10EC6100EB2421F8A6028014051AE4B51A02051B4B
:10EC7100851A12851B13851C1402EBCF8512828520
:10EC810013838514F012EFFAFB600302EE72C37472
:10EC9100808AF063F08095F0500574075A4207109E
:10ECA1000702801574075F4430FA5307F87512168E
:10ECB1007513F075148002EBBE8F82C005C0061279
:10ECC100E931D006D00502EE728F82C005C006126E
:10ECD100E931D006D00502EE72C0060517E4B5177A
:10ECE100020518AA17AB18851782851883E493FCCF
:10ECF1003395E0FEEC2AFAEE3BFB74012AF515E4AC
:10ED01003BF516851582851683C005C00612E98D6F
:10ED1100D006D005851782851883E493FAF582C061
:10ED210005C00612DCAFD006D005D00610990280CE
:10ED3100FB75992002EE72C006851782851883E45F
:10ED410093FAC4035407FAAB17AC1874022BFBE413
:10ED51003CFC8C037C005303F8E4FCFEEA4203EE26
:10ED610042048B070517E4B5170205188F028A03C1
:10ED71007A00851782851883E493FC7E002AF515B5
:10ED8100EE3BF516851582851683C005C00612E98E
:10ED91008DD006D005851782851883E493FAF58214
:10EDA100C005C00612DCAFD006D005D0061099020E
:10EDB10080FB75992002EE720517E4B5170205185C
:10EDC100851782851883E493FA8A037C008B167574
:10EDD10015008A82C005C00612DCAFD006D005102E
:10EDE100990280FB7599200517E4B517020518856E
:10EDF1001782851883E493FAF582C005C00612DCF8
:10EE0100AFD006D00510990280FB75992085178235
:10EE1100851883E493FA7B002515F515EB3516F576
:10EE210016851582851683C005C00612E98DD006A8
:10EE3100D005803D90F74175F080C005C00612E90C
:10EE410064D006D005AA0C050CEA2421F8A6068098
:10EE510020AA0C050CEA2421F87672AA0C050CEA0A
:10EE61002421F8A619800AAA0C050CEA2421F8A687
:10EE710007050FE4B50F02051002EAD0AA0C050C34
:10EE8100EA2421F8760AAA0C050CEA2421F8760076
:10EE910090002175F04012DB5B0517E4B517020500
:10EEA100180511E511B41702800302EA3412DEC419
:10EEB100AF82BF1B0122BF2005151102EA34751173
:04EEC1000002EA342D
:10F4260044F749F74EF753F75AF761F769F770F75C
:10F4360076F77DF784F78CF792F799F79FF7A5F79C
:10F446006E6F700A48260A6C6A6D70093A0A727203
:10F4560009610A42610A42210A0A422A0A0A0A0A7A
:10F466000A0A0A0A423F0A6A626309252C2E0A44DE
:10F47600260A6C63616C6C093A0A72726320610A2F
:10F4860043610A43210A0A432A0A0A0A0A0A0A0A9D
:10F496000A433F0A6A6209252C2E0A48260A726523
:10F4A600740A726C09610A45230A45210A0A452A2B
:10F4B6000A0A0A0A0A0A0A0A453F0A6A6E62092500
:10F4C6002C2E0A44260A726574690A726C630961F5
:10F4D6000A46230A46210A0A462A0A0A0A0A0A0A82
:10F4E6000A0A463F0A6A63092E0A48260A6F726CA0
:10F4F60009212C610A6F726C09212C230A47230A01
:10F5060047210A0A472A0A0A0A0A0A0A0A0A473F32
:10F516000A6A6E63092E0A44260A616E6C09212C5A
:10F52600610A616E6C09212C230A49230A49210AC2
:10F536000A492A0A0A0A0A0A0A0A0A493F0A6A7A82
:10F54600092E0A48260A78726C09212C610A7872FB
:10F556006C09212C230A4A230A4A210A0A4A2A0A42
:10F566000A0A0A0A0A0A0A4A3F0A6A6E7A092E0A29
:10F5760044260A6F726C09632C250A6A6D7009406D
:10F58600612B500A41612C230A41212C230A0A418E
:10F596002A2C230A0A0A0A0A0A0A0A413F2C230AC3
:10F5A600736A6D70092E0A48260A616E6C20632CF8
:10F5B600250A6D6F766309612C40612B70630A64BE
:10F5C60069760961620A41212C210A0A41212C2A05
:10F5D6000A0A0A0A0A0A0A0A41212C3F0A41502C41
:10F5E600230A44260A41252C630A6D6F7663096156
:10F5F6002C40612B500A4B230A4B2E0A0A4B2A0A2F
:10F606000A0A0A0A0A0A0A4B3F0A6F726C09632C35
:10F616002F2E0A48260A41632C250A42500A6D7588
:10F626006C0961620A64620961350A0A412A2C2161
:10F636000A0A0A0A0A0A0A0A413F2C210A616E6C62
:10F6460009632C2F2E0A44260A63706C09250A6367
:10F65600706C09630A4C612C23202E0A4C612C2104
:10F66600202E0A0A4C2A2C23202E0A0A0A0A0A0AE3
:10F676000A0A4C3F2C23202E0A7075736809210A4A
:10F6860048260A636C7209250A636C7209630A7359
:10F6960077617009610A4D210A0A4D2A0A0A0A0A87
:10F6A6000A0A0A0A4D3F0A706F7009210A44260A9F
:10F6B6007365746209250A7365746209630A646175
:10F6C6002F74610A4E21202E0A0A78636864096144
:10F6D6002C2A0A0A0A0A0A0A0A0A4E3F2C2E0A4F3E
:10F6E600612C40500A48260A0A4F612C2A0A636C8C
:10F6F6007209610A41612C210A0A41612C2A0A0A0F
:10F706000A0A0A0A0A0A41612C3F0A4F40502C6134
:10F716000A44260A0A4F2A2C610A63706C09610A98
:10F7260041212C610A0A412A2C610A0A0A0A0A0A9C
:10F736000A0A413F2C610A003A20004072006D6FB0
:10F74600760900696E630900646563090061636197
:10F756006C6C090061646409612C0061646463096E
:10F76600612C006F726C09612C00616A6D70090072
:10F77600616E6C09612C0078726C09612C007375DE
:10F78600626209612C00636A6E6509007863680924
:10F79600612C00646A6E7A09006D6F7678090064E0
:04F7A6007074720009
:10EEC500C2ABC0A8C2AFC083C082900688F09006CE
:10EED50089E5D0F090068AE5F0F090068CD0E0F058
:10EEE50090068ED0E0F090068BD0E0F0900692D0A0
:10EEF500E0F0900691D0E0F0900690E581F0900664
:10EF05000075D000E8F07801A3E6F008B880F99024
:10EF150006937401F075815A12D86B02D862787F16
:10EF250090067FE0F61582D8FAE0F690068BE0F5BC
:10EF3500A890068AE0F5F0900689E0F5D090069055
:10EF4500E0F581900694E0C0E0A3E0C0E090068C77
:10EF5500E0C0E090068EE0C0E090069CE06009907D
:10EF65000688E0D083D08232900688E0D083D082B4
:10EF750012DB55D2AFD28AD2AB32AA82BA30004068
:10EF850005EA24C65014BA61004005EA2499500ADE
:10EF9500BA41004009EA24B940047582012275820C
:10EFA5000022AA82BA20028017BA0C028012BA0A7D
:10EFB50002800DBA0D028008BA09028003BA0B045B
:08EFC500758201227582002211
:06D83500E478FFF6D8FDC7
:10D813007900E94400601B7A0090F7AA78C175A0EB
:10D8230006E493F2A308B8000205A0D9F4DAF2756E
:02D83300A0FF54
:10EFCD0020F71030F6118883A88220F507F6A88364
:09EFDD0075830022F280F7F02296
:10D83B007800E84400600A790075A000E4F309D889
:10D84B00FC78C1E84400600C7901900600E4F0A379
:04D85B00D8FCD9FA22
:10EFE600AA82BA61004009EA24854004758201229A
:04EFF60075820022FE
:0DD8060075815A12D86BE582600302D8626A
:10EFFA0020F71430F6148883A88220F507E6A88340
:0CF00A0075830022E280F7E49322E022EC
:00000001FF
